:020000040800F2
:10000000B8650020390300081B240008CD1D000836
:100010001924000871110008E14D000800000000DB
:100020000000000000000000000000008102000845
:100030001D17000800000000D50200083D49000817
:100040005303000853030008530300085303000838
:100050005303000853030008211900083119000850
:100060005303000851190008530300085303000804
:100070005303000853030008530300085303000808
:1000800053030008530300085303000853030008F8
:1000900053030008530300085303000853030008E8
:1000A00053030008530300085303000853030008D8
:1000B000AD49000853030008530300085303000828
:1000C00053030008530300085303000853030008B8
:1000D00053030008154C000853030008530300089D
:1000E0005303000853030008530300085303000898
:1000F0005303000853030008530300085303000888
:100100005303000853030008530300085303000877
:100110005303000853030008530300085303000867
:100120005303000853030008530300085303000857
:100130005303000853030008530300085303000847
:100140005303000853030008530300085303000837
:100150005303000853030008530300085303000827
:100160005303000853030008530300085303000817
:100170005303000853030008530300085303000807
:10018000530300085303000800F002F800F068F879
:100190000AA090E8000C82448344AAF10107DA45E2
:1001A00001D100F05DF8AFF2090EBAE80F0013F0CC
:1001B000010F18BFFB1A43F001031847F075000048
:1001C000107600000A444FF0000C10F8013B13F0C9
:1001D000070408BF10F8014B1D1108BF10F8015BA0
:1001E000641E05D010F8016B641E01F8016BF9D193
:1001F00013F0080F1EBF10F8014BAD1C0C1B09D1EA
:100200006D1E58BF01F801CBFAD505E014F8016B5B
:1002100001F8016B6D1EF9D59142D6D370470000ED
:100220000023002400250026103A28BF78C1FBD8FF
:10023000520728BF30C148BF0B607047642900F0E7
:100240005D81732900F0FE82002070471FB506F023
:100250000DFD9DE8030000F03BFA1FBD10B510BD79
:1002600000F089FB1146FFF7F1FF04F027FE00F0D4
:10027000A7FB03B4FFF7F2FF03BC04F0CDFD0000C1
:100280002A4B19680868B0E8F04F80F30988BFF37B
:100290006F8F4FF0000080F311887047000000005E
:1002A00006480068006880F3088862B661B6BFF34C
:1002B0004F8FBFF36F8F00DF00BF00BF08ED00E07E
:1002C000DFF80C00016841F470010160704700BF65
:1002D00088ED00E0EFF30980BFF36F8F134B1A68CE
:1002E0001EF0100F08BF20ED108A20E9F04F1060BB
:1002F00008B44FF0500080F31188BFF34F8FBFF365
:100300006F8F05F083FE4FF0000080F3118808BC6A
:1003100019680868B0E8F04F1EF0100F08BFB0EC85
:10032000108A80F30988BFF36F8F7047880600201A
:10033000EFF30580704700000948804709480047EF
:10034000FEE7FEE7FEE7FEE7FEE7FEE7FEE7FEE785
:10035000FEE7FEE704480549054A064B70470000E2
:100360005149000889010008B85F0020B8650020E5
:10037000B8610020B8610020704770B5064600F0F3
:100380008BF9056806F10B0020F00704B4429CBF0E
:10039000002070BD2B466A68BAB11068A04210D325
:1003A00004F1080188423CBF5068586007D3516887
:1003B000101941601168091B016058601460101D1C
:1003C00070BD13465268002AE7D12146284600F046
:1003D0006BF90028DED170BD70B50446051F00F032
:1003E0005BF90068002C14BF446870BD002C18BF76
:1003F000AC423CBF20466468F8D301680A18AA42A0
:1004000018BF456003D12A68054611440160286879
:100410004119A1421CBF6C6070BD616869602168B0
:100420000844286070BD00000FB4044910B503AA49
:10043000029800F00BFA10BC5DF814FB7406002063
:100440002DE9F0410E460446002020622046E16876
:10045000884730B3252805D0D4E901219047206A88
:10046000401CF2E7E168204600278847050018D0C5
:10047000A5F14100192802D820354FF40067324613
:10048000294620462760FFF7D9FE40B1012804D055
:10049000F61D26F007060836D8E7361DD6E72846AB
:1004A000DAE7206ABDE8F08170B50C460546012AFE
:1004B00005D02878800600D5EA69002302E00123F0
:1004C00005E05B1C934202D2E05C0028F9D1A869E8
:1004D000E618C01AA861286A184428622846AFF3B3
:1004E000008004E0D5E9012114F8010B9047B442E3
:1004F000F8D32846AFF3008070BD00002DE9F0412D
:100500000646002410687529314616A510D0AFF3B1
:100510000080002802DA404213A507E031688A070C
:1005200001D512A502E0490704D511A5012401E077
:10053000AFF3008000210A2206F1240709E0B0FB96
:10054000F2FCB0FBF2F302FB1C003030785418468A
:10055000491C0028F3D123462A463046BDE8F04125
:1005600000F0ECB8000000002D0000002B0000009F
:100570002000000010B5431C02E010F8011B71B10F
:100580008107FAD14FF0013202C88C1A8C4314EA69
:10059000C211F9D0C01A0A0603D0C01E10BDC01A7D
:1005A00010BD0A0401D0801E10BD0902FCD0401EFF
:1005B00010BD032A40F2308010F0030C00F01580CB
:1005C00011F8013BBCF1020F624498BF11F801CB56
:1005D00000F8013B38BF11F8013BA2F1040298BFBB
:1005E00000F801CB38BF00F8013B11F0030300F025
:1005F0003F81083AC0F0088051F8043B083A51F8AE
:1006000004CBA0E80810F5E7121D5CBF51F8043BCD
:1006100040F8043BAFF30080D20724BF11F8013B40
:1006200011F801CB48BF11F8012B24BF00F8013BA2
:1006300000F801CB48BF00F8012B704702F0FF0320
:1006400043EA032242EA024200F002B84FF00002FD
:100650000429C0F0128010F0030C00F03D81CCF1B1
:10066000040CBCF1020F18BF00F8012BA8BF20F842
:10067000022BA1EB0C0100F02FB95FEAC17C24BF73
:1006800000F8012B00F8012B48BF00F8012B704740
:100690007047704770477047004870475C5F0020A4
:1006A000704770477047704738B504460A460020C7
:1006B0006946AFF30080002808BF38BD02460099A4
:1006C000204600F033F9012038BD012000F04CB97C
:1006D000F8B5AFF30080054600200C46102000BF9F
:1006E0000646A819A0420DD9324669460020AFF34C
:1006F0000080070008BF00F037F90098A04218BF3B
:100700000546C419FFF7C8FF05600746F01D20F035
:1007100007004619284600F00AF8B44208BFF8BDA1
:10072000A21B31463868BDE8F84000F0FFB8002150
:100730000160C0E901107047102070472DE9F047B3
:100740000D4699469246044600F124080168880641
:1007500004D5E06921F01001216000E00120A842E9
:1007600001DD471B00E00027A1697A1902EB0900AF
:10077000081AA0612078C00602D42046AFF300809A
:10078000002608E0D4E901211AF806009047206A03
:10079000401C761C20624E45F4DB2078C0060AD54A
:1007A0002046AFF3008006E0D4E9012130209047D5
:1007B000206A401C2062381EA7F10107F4DC07E024
:1007C000D4E9012118F805009047206A401C2062F6
:1007D000281EA5F10105F3DC2046AFF30080207848
:1007E000000602D50220BDE8F0870120FBE70000EB
:1007F00001694A1C02610878704700B58FB0CDE9E5
:1008000001310021059105497944CDE903101146D4
:100810006846FFF715FE0FB000BD0000E5FFFFFFC3
:1008200010B5436913B1AFF3008001E0FFF73CFE60
:10083000012010BD127800F124010A7000224A70D4
:100840000122EDE711684FF0FF32E9E7074B70B581
:100850000D467B44FFF7D1FF0446284600F080F8A0
:1008600010B14FF0FF3070BD204670BD0F46000044
:1008700010B5203AC0F00B80B1E81850203AA0E83B
:100880001850B1E81850A0E81850BFF4F5AF5FEA6F
:10089000027C24BFB1E81850A0E8185044BF18C922
:1008A00018C0BDE810405FEA827C24BF51F8043BC9
:1008B00040F8043B08BF7047D20728BF31F8023B1D
:1008C00048BF11F8012B28BF20F8023B48BF00F8B1
:1008D000012B70474FF0000200B513469446964630
:1008E000203922BFA0E80C50A0E80C50B1F1200143
:1008F000BFF4F7AF090728BFA0E80C5048BF0CC0F1
:100900005DF804EB890028BF40F8042B08BF70474E
:1009100048BF20F8022B11F0804F18BF00F8012BC0
:100920007047000000487047545F0020034640684D
:100930008C46002818BF88423CBF03464068F8D365
:1009400018681844884207D00CF1030020F0070013
:10095000001D411A521A0146081D0A60FFF73CBDEE
:10096000007B00F08000704710B500F035F8BDE85E
:10097000104000F02BB87546FFF7D4FFAE460500D7
:100980006946534620F00700854618B020B5FFF7AA
:10099000E1FCBDE820404FF000064FF000074FF0AB
:1009A00000084FF0000B21F00701AC46ACE8C0098D
:1009B000ACE8C009ACE8C009ACE8C0098D46704796
:1009C0000446AFF300802046FFF753FC002801D017
:1009D00004F022BA7047000010B5012805D00021AC
:1009E00003A000F021F8012010BD09A1F8E70000E4
:1009F00053494752544D454D3A204F7574206F6608
:100A00002068656170206D656D6F7279000000006F
:100A10003A2048656170206D656D6F727920636F53
:100A2000727275707465640070B505460C460A20D4
:100A300000E06D1C04F0F1F935B128780028F8D1F8
:100A400002E0641C04F0E9F914B120780028F8D120
:100A5000BDE870400A2004F0E0B900002DE9F05F25
:100A6000D04E8A460024611E7182C10600F00F0537
:100A70004FF00109304686F80B90807BA34604D5E1
:100A80004FF0010B20F0100005E0C10601D5012D4B
:100A900070D100F00F00B073000605EB1050C0B22B
:100AA0000027804644281DD009DC122811D02228B6
:100AB0000FD024280FD0B8F1420F20D109E04828E8
:100AC00010D0822805D084280CD0B8F1880F16D118
:100AD00008E0022007E0B3492E31881E00F056FAE4
:100AE000040004D1707B00F0CBFC040007D0B07B85
:100AF00002286ED004286DD008286CD1ECE07785F0
:100B00004046B8F1340F22D022DC222831D010DC4C
:100B100014281CD007DC112874D012283BD0B8F15F
:100B2000130F70D131E0182811D0B8F1210F6AD11C
:100B3000ABE028280BD005DC232808D0B8F1240F1F
:100B400061D149E0312822D0B8F1320F5BD1BFE04A
:100B500048285ED00FDC42287FD005DC38286FD0D3
:100B6000B8F1410F4FD187E0432869D0B8F1440F65
:100B700049D195E0F2E0A8F18100082843D2DFE8EE
:100B800000F07265A760A9A9A98F1324B9E086486F
:100B900013240770B5E004F00BF9307820B101F0B0
:100BA00051FB040002D006E05124AAE0F77200F0E5
:100BB000C5FA040004D0FF2C6FD0F07A20B105E014
:100BC0007A4981F800909CE000F0BEFA01F072FBD7
:100BD00097E089E084E073E003F0C8FB040006D1ED
:100BE0007048F772383000F0A7FA040004D0FF2CE8
:100BF00053D0F07A40B109E0308F03F025FB86F83E
:100C000002907EE04AE065E000F09CFA03F0B6FD59
:100C100077E003F0A3FD040004D1F77200F090FA2E
:100C2000040004D0FF2C38D0F07A18B104E086F824
:100C3000019066E000F08AFA03F0CEFD61E00CE07E
:100C400046E000F083FA03F0C7FD0AE000F07EFA08
:100C5000044603F0C1FDF77294BB00F073FA03F091
:100C60008DFDF7724DE000F071FA044603F0B4FD1B
:100C7000F7722CBB4FF0410800F064FA044603F011
:100C80007DFDF772E4B94FF0210801F013FB00F08D
:100C90005BFA0446444807702AE047E04248077080
:100CA000BBF1000F02D0404600F03EF9B07A68B9BF
:100CB000B07B10F00C0F09D0F08D10B1022003E0D2
:100CC00016E0B08D10B1032000F088FEFE2418E07D
:100CD000112416E0122414E000F038FA03F07CFD31
:100CE00000F030FA03F04AFD162C04D00220B07355
:100CF000FF2C1BD005E001F0DDFA00F025FA86F8A4
:100D00000E90B07B00F00F01A94247D054EA0A01CF
:100D10002BD02843000728D5707818B100F016FAB8
:100D200003F05AFDF08DD8B102201CE086F80C903B
:100D30004046A6F82A80B8F1120F07D0132805D034
:100D4000242806D0482804D0C82004E04FF4FA60D4
:100D500001E042F2283080B232387082BDE8F09F64
:100D6000B08D10B1032000F0DAFC4CB1B07B082844
:100D700001D10420B073C0B240F01000B07306E09F
:100D80005FEA0A0002D0044645F01005B5733773D8
:100D9000B07B2146BDE8F05F03F070BA37730021E5
:100DA000F8E7000038070020A80700207E07002091
:100DB0002DE9F0415A4F387B00287DD0788A0024F5
:100DC00001260028788DA0461AD0122854D0132866
:100DD00052D0242877D048286ED1F87A00286BD0DA
:100DE000787900286AD0B7F91800002864DDB7F9CF
:100DF0001A10884260DCA7F81880A7F81A8087E0EC
:100E0000C0F30715122806D0132804D024280DD0CB
:100E1000482847D114E0F87A08B900F095F901F0B4
:100E200049FA09E03C8D3DE001243BE0F87A08B93D
:100E300000F088F903F0A2FCB87A0028F4D0F1E7BA
:100E4000787970B1B87910B1F87810B105E02D2437
:100E500004E0F88D08B11B2400E01A24F87A30B1C0
:100E600007E0F88D0028F6D108257E701CE000F020
:100E70006DF903F0B1FC15E0F87A00284DD087F841
:100E80000B8000F05BF938B1FF2846D000F05CF928
:100E9000BDE8F04101F00EBA2248067097F82A002A
:100EA00000F00F05002D38D087F80C800CB145F00C
:100EB00010052146284602E02FE004E023E0BDE8CB
:100EC000F04103F0DBB9F87A002826D0144887F8FF
:100ED0000B80383000F030F938B1FF281DD000F019
:100EE00031F9BDE8F04103F049BCBE700425DBE7F1
:100EF0007E700825D8E7FF280FD000F027F9BDE85D
:100F0000F04103F069BCF88D10B1F878002804D0E6
:100F100000F016F90028EED1EAE7BDE8F081000004
:100F2000380700207E0700207047000010B5164CDF
:100F30000021B4F902000A2802DA401C608000E0B7
:100F40006180B4F90400B0F57A7F02DA401CA08019
:100F500000E0A180052003F059FEE0800A480A4A1B
:100F60001C38203A80785188430860F3000141F032
:100F7000010163F34101830863F38201C00860F358
:100F8000C301518010BD0000760000202DE9F35F01
:100F90004FF0000A544655465746DFF8CCB01FE0E4
:100FA0000BEB4400408801F09FFB060023D0B069A2
:100FB000B0F8009000200FE000F1010808F0FF00F9
:100FC000314601F000FBB16901EBD000006857FA2F
:100FD00080F087B21FFA88F04845EDD3641CA4B2B4
:100FE000BBF80010A142DBD8FF1D4FEAD709BAF1C8
:100FF000000F04D02AE000274FF0250AF4E7DFF8BD
:1010000068B000260BF10C0B1CE00BEB460040888F
:1010100001F06AFB070023D0B8690024B0F8008013
:101020000CE0641CE0B2394601F0CDFAB96901EB7D
:10103000D000006855FA80F085B2A4B24445F0D3E0
:10104000761CB6B2BBF80010B142DED80099ED1D97
:10105000E808088001995046A1F80090BDE8FC9F7F
:1010600000254FF0240AF1E76200002010B50021AE
:10107000184B2AE003EB41025288B2F5D05F06D04C
:101080006FF4D054121911D0012A1CD112E0114A68
:101090000832548820F8024B948820F8024BD488F8
:1010A00020F8044B128920F8022C0CE0094A143A6B
:1010B000528806E0074A921F528820F8022B40F21D
:1010C000111220F8022B491C89B21A888A42D1D801
:1010D00010BD00006E000020F0B5164B00216FF42B
:1010E000B055A3F10806A3F112041F1F1A881DE0D2
:1010F00003EB410CBCF802C01CEB050C03D0BCF1A7
:10110000010F11D10CE030F802CBA6F802C030F884
:1011100002CBA4F802C030F802CBA4F804C003E06C
:1011200030F802CBA7F802C0491C89B28A42DFD846
:10113000F0BD0000620000200020704700207047D2
:101140000020704700207047002070470020704743
:1011500030B5044600204FF6FF7505E0204600F04C
:1011600009F8002803D128342189A942F6D130BDDD
:10117000FEE7000030B500B3144A0024116849B1FD
:101180000D8903899D4215D904601168416008608A
:10119000106018E010604460046014E007D90A6829
:1011A000C0E900210A6802B1506008600BE04A689B
:1011B00032B111460A899A42F0D14FF0010030BD98
:1011C0004860C0E900144FF0000030BD500100201D
:1011D00030B5064D2C6803E02089646800F0F0F813
:1011E000002CF9D10020286030BD00005001002003
:1011F00010B50D4C206828B1002100F08DFF0020B3
:1012000020600CE04FF48070FFF7B7F8040008D0BE
:101210000E220649FFF7CDF9204602F041F90020E1
:1012200010BD072010BD000034070020545C0020D2
:10123000014800687047000050010020024900206A
:101240000860024908807047340700200807002022
:101250002DE9F84F214F3E68002E3DD0DFF880A0E9
:10126000204C214D9AF800000090DFF880B0DFF8A4
:10127000808023689BF80010B8F800002A68B04707
:101280000646FF2828D0DFF86C90002799F8000068
:1012900001280DD0022804D003280CD004280FD137
:1012A00009E01549086818B1FFF796F81248076079
:1012B0000022114601E022682968304602F020FA37
:1012C00089F80070A8F800708BF800702F60034850
:1012D00027608AF800700760BDE8F88F18070020C3
:1012E000FE0600201407002010070020FF06002043
:1012F00006070020FD0600201C070020084900B555
:101300000020086001F53F70FFF722FF002805D19B
:1013100003485DF804EB001DFFF71ABF00BD000095
:101320005001002010B51A48202300240380448077
:10133000446044F21F02846082811649C0E90414AB
:101340008483046280F840401348038044804460F2
:1013500084608281C0E904148483046280F8404080
:101360000E480470FFF7CAFF08B1FFF731FF0C48C1
:1013700004700C4804700C4804800C4804700C483D
:1013800004600C4804600C4804600C48046010BD04
:10139000CC5E0020A0860100105F0020A80700207E
:1013A000FD060020FE06002006070020FF060020A4
:1013B0001007002014070020180700201C07002039
:1013C0000C4B196813E00A8982420FD1D1E9002041
:1013D00002B1506000B1026000220A604A601A68DF
:1013E00009891289914200D1186070474968002923
:1013F000E9D1704750010020C188090B09290CD29E
:10140000DFE801F00B09050909090909070001F0E6
:10141000DFBE02F045B80420704705207047000089
:1014200038B5164C608EB0B10025ADF800500222E0
:101430004FF48861684600F077FBBDF80000C007F4
:1014400009D1E08D38B1607820B11B210420FFF76D
:1014500005FB38BDE57060790028FAD06078002877
:10146000F7D0A07940B1E0790028F2D11A21BDE887
:1014700038400420FFF7F2BA2C21F8E738070020A3
:101480002DE9F0475E4E05460024308E41F6FF718F
:10149000884202D21420BDE8F087002000F036FB1D
:1014A00042880188D30774D1CB0772D18379DB07D7
:1014B00013D08088C0F38103012B0ED180070CD597
:1014C000222A0AD34FF48078424506D81F03B94236
:1014D00003D34FF40059494501D316248EE001206F
:1014E00000F014FB41880288CB0752D1D30750D1BA
:1014F0008379DB07F1D0808810F00C0FEDD18007E5
:10150000EBD52229E9D34145E7D8B8464245E4D393
:101510004A45E2D200274FF0010A032D2DD986F863
:1015200009A0032000F0F2FA014640880A88C307A8
:101530002FD1D3072DD18B79DB0719D0D8B1B38D3B
:10154000984218D1BBB1442815D8888810F00C0FE8
:1015500011D1B17B022906D0F18E8A420BD18007CE
:101560000BD5777209E0424505D34A45F7D302E02F
:10157000B18D084301D01E2440E0022D3BD902204A
:1015800000F0C4FA014640880A88C30701D1D30796
:1015900001D017207FE78B79DB0720D010B3F38DC4
:1015A00098421FD1F3B144281CD88888C0F3810128
:1015B000012917D1B17B022907D0B18E8A4211D1FE
:1015C000410607D586F804A005E042450AD34A45FE
:1015D000F6D307E0377180070DD577720BE0F18DF8
:1015E000084308D01D2409E0284600F08FFAC0887F
:1015F00030826D1CEDB2707B8542F5D320464AE700
:101600003807002070B51F4B41F6324603F1440203
:101610009C891D4B751C92891B8802291DD003DCF7
:1016200061B301292CD104E003291ED0222927D13E
:101630000DE0B04202D10BB1A1071FD4A8421FD1C7
:1016400090071DD5E3B911480088B8B918E0A84241
:1016500016D1900714D58BB912E0B04201D16107C1
:101660000CD4A8420CD1500706E0B04201D12107AA
:1016700004D4A84204D11007002801DA002070BD6C
:10168000122070BDCC5E0020660700206407002099
:1016900070B5062000F0C2FE1D4A507948B1D08BCB
:1016A000002358B1918B814208D39371D07900B156
:1016B000D371BDE87040062000F0C6BE918B814218
:1016C00001D2491C918301249471518C21B1108C59
:1016D0008842EAD2401C10840E480F4D018D2D899E
:1016E000A94208D2D471B2F918000028E1DD508B6C
:1016F000401C5083DDE7D1790029DAD0D37180F81E
:101700004040B2F918000028D3DD5383D1E7000030
:1017100038070020CC5E00209C070020704738B5B9
:101720004FF48071ADF8001040F6060101EBC004E3
:1017300002222146684600F04FFA022221466846FE
:1017400000F0F2F9BDF80000C005F6D538BD000084
:101750000948406818B909494888401C4880084829
:10176000007830B10749B1F90000002801DD401EC2
:101770000880FFF78DBF0000CC5E00200C01002028
:10178000440700204A070020F8B50025ADF80050B6
:1017900002220421684600F0C7F9BDF800001C4C85
:1017A000000A022260730621684600F0BDF9BDF808
:1017B000000040F6FF7101EB8020208603F0F8FA6C
:1017C000002604E03046FFF7AAFF761CF6B2607BE5
:1017D0008642F7D300F018FCE5722573E57065705A
:1017E000A57025716586A583E5832584658465716B
:1017F000A57225852587E585A5850120A073002193
:1018000002F03CFD65852572BDE8F840FFF716BD86
:10181000380700202DE9FC4100260120ADF80460C6
:10182000ADF8000000F0E8FC394F40F60E083878BB
:1018300020B102224146684600F076F900F024FA11
:101840000446344DC0070FD0287B68B902224FF4FC
:10185000907101A800F068F9BDF8040024F01104AB
:10186000C0B20021FFF7FAF8E0060FD5287B78B95F
:10187000A87BC1060ED420F0100101290AD024F063
:10188000100400F00F000021FFF7E8F8287B08B1F2
:10189000FFF78EFA3878002837D0BDF80000C0076F
:1018A00005D1A87B002100F00F00FFF7D7F8A005B5
:1018B00009D56E8718480222018816483A3000F090
:1018C0008BF900F0D9FBBDF80000144C800720789C
:1018D00001D508B113E090B100F0FEFB207800289C
:1018E000BDF8000002D040F4007001E020F4007068
:1018F000ADF8000002224146684600F06DF900F0A4
:10190000C3F9C00501D500F0BFFABDE8FC810000B5
:101910007E070020380700208A0700207F0700206C
:1019200010B501F0D7FABDE81040012000F018B85A
:1019300010B54FF0E0214020C1F8800102F0D4FF43
:10194000022000F00DF8BDE81040062000F071BD47
:1019500010B502F049FFBDE810400820AFF3008049
:101960000149086070470000143C014030B51A4A34
:101970008379016853B313688B431360111D0B689F
:101980000468A3430B60017911440B680468234386
:101990000B60114B083319680468A14319601C1DC2
:1019A00021680568A94321604179102905D01144B7
:1019B0000A68006802430A6030BD19680268114372
:1019C0001960216800680143216030BD007910442E
:1019D00002688A43026030BD003C014038B50021F6
:1019E000ADF8001040F6060101EBC00402222146CA
:1019F000684600F0F1F802222146684600F094F8AB
:101A0000BDF80000C005F6D438BD00001CB50121AA
:101A1000FF2001F017FB01208DF8040000208DF855
:101A200006000220064C4FF480718DF805000091ED
:101A3000204600F053F86946204600F003F81CBD2C
:101A400000180240F0B5002201274FF0030C0B688C
:101A500007FA02F52B40AB422CD1066853000CFA72
:101A600003F4A64306600E79D0F800E09E4046EAF3
:101A70000E0606600E79012E01D0022E12D1866864
:101A8000A64386604E79D0F808E09E4046EA0E06EE
:101A900086604668AE43466045688E799640B6B229
:101AA00035434560C568A543C560CC799C40C36893
:101AB0001C43C460521C102AC9D3F0BD4B07DB0E77
:101AC0009A40C90810B500EB8100016A0F249C40C0
:101AD000A1430162016A1143016210BD4183704755
:101AE000018370470188428891420BD000EB81024C
:101AF000491C926889B201808388994203D10021F0
:101B0000018000E000221046704700004FF40061A1
:101B100010B501EBC0010822024800F005F80148A9
:101B200010BD0000740700202DE9F04115460E4657
:101B300007464FF4805820E0464501D32C4610E07C
:101B4000042D01D9042400E02C46F00703D1B0078E
:101B500005D5E00701D0012403E0022401E0032CB5
:101B6000F9D072B622463146384601F011FF62B60E
:101B7000281B85B23019274486B2002DDCD1BDE880
:101B8000F0812DE9F04115460E4607464FF4805886
:101B90001EE0464501D32C4610E0042D01D9042453
:101BA00000E02C46F00703D1B00705D5E00701D0CF
:101BB000012403E0022401E0032CF9D0224631463F
:101BC000384601F0E5FE281B85B23019274486B25D
:101BD000002DDED1BDE8F0812DE9F04115460E461D
:101BE00007464FF4805820E0464501D32C4610E0CC
:101BF000042D01D9042400E02C46F00703D1B007DE
:101C000005D5E00701D0012403E0022401E0032C04
:101C1000F9D072B622463146384602F075F862B6FF
:101C2000281B85B23019274486B2002DDCD1BDE8CF
:101C3000F0812DE9F04115460E4607464FF48058D5
:101C40001EE0464501D32C4610E0042D01D90424A2
:101C500000E02C46F00703D1B00705D5E00701D01E
:101C6000012403E0022401E0032CF9D0224631468E
:101C7000384602F049F8281B85B23019274486B24D
:101C8000002DDED1BDE8F08110B572B602224FF40E
:101C900008710348FFF775FF62B60148008810BD60
:101CA0006C06002010B502224FF408710248FFF7BD
:101CB00068FF0148008810BD6C060020F8B5FFF7EA
:101CC000A5FE01F0E7FD002593244FF40176ADF861
:101CD0000040042231466846FFF77EFFADF8005011
:101CE000042231466846FFF71FFFBDF80000932825
:101CF000EDD140F20111542001F03CFF01215C20A4
:101D000001F038FF582001F04BFEADF800500422DE
:101D100031466846FFF760FF00F05AF8062000F0F1
:101D200088FB02F02BF802F067F8092000F081FB35
:101D3000072000F07EFB0A2002F051FE1C2000F07C
:101D400078FB62B60020F8BD7047000070B51948F6
:101D50000078002823D11848007800281FD0174B9E
:101D60000021174C9D8B17484FF08042012D17D052
:101D70004578012D13D1526A456843F60956521B26
:101D8000114D6A434FF4FA6592FBF5F542887243B0
:101D900005EB82125A60626041804160417070BD03
:101DA000596099836160A183418001214170516A2A
:101DB000416070BD3D07002040070020CC5E002040
:101DC000105F00200C01002040420F00FEE70000E1
:101DD00030B585B00121042001F034F901218803D8
:101DE00001F054F902208DF811000124002503941C
:101DF0008DF8105003A91348FFF724FE002102209C
:101E000002F036F80120FFF7ABFD8DF804501020EA
:101E10008DF8050000948DF806406846FFF7A6FD92
:101E20004FF4C06000F04EFB06208DF808008DF8DE
:101E300009508DF80A508DF80B4002A800F010FBF5
:101E400005B030BD000802407CB50121402001F002
:101E5000F9F801208DF8040000228DF806200321F6
:101E60008DF80510074D4FF480748DF8070000942D
:101E700069462846FFF7E6FD21462846FFF730FE73
:101E80007CBD0000001802402DE9FC412F4D0222CC
:101E90006846A989FFF748FEE8790126002701284E
:101EA00017D10A20FEF769FA040012D02760676094
:101EB000278104202080A088002120F47060A08069
:101EC000E68007202081204600F026F92046FEF714
:101ED00083FABDF80000801D81B2ADF8001068786B
:101EE000AA79104302D02E70BDE8FC812F7068895A
:101EF000814201D9ADF80000FEF73FFA28610028C1
:101F0000F1D0BDF80020A989FFF70EFEADF80470EE
:101F1000022240F6040101A8FFF706FEBDF8040006
:101F2000ADF80400BDF8040000050AD50848078094
:101F3000A889698902220844801E81B20448FFF7FB
:101F4000F3FD286900F024F9CEE700007C070020AB
:101F5000720700202DE9F84305462748007800F075
:101F60000F00012807D0254EB07820B1707820B13D
:101F70000720BDE8F883F020FBE72C88F18904F105
:101F800006081FFA88F22846FFF726FE0027ADF85C
:101F90000070022240F60C016846FFF7C5FDBDF84F
:101FA0000000ADF80000BDF80000000518D4307A3C
:101FB0001349001B801FC0B20F80022807D228F0EF
:101FC0000101C0F1020229440D48FEF7F2FAF0893E
:101FD000318902220844801E81B20948FFF7FCFDC6
:101FE000706908B1376101E0064830610120756110
:101FF00070700020BDE70000460700207C0700202D
:1020000072070020645D0020F8B5194D22200024DD
:1020100068814FF4807028810001A881E88115480B
:102020000A2140F60E060480448081803438022262
:102030000480448081802C61AC616C61EC61EC7047
:10204000ADF8004031466846FFF76EFDBDF8000070
:10205000022220F40070ADF8000031466846FFF718
:10206000BBFDAC706C702C70AC712C716C71F8BDD8
:102070007C070020985E002070B5154C0025657027
:10208000A06920B1E16911B9FEF7A6F9A5616069FF
:10209000A061E06918B1FFF75DFFE56105E00D485B
:1020A000FFF720FD08B1FFF755FFA07900280DD0FC
:1020B00081070BD520F00200A0712069FFF798F886
:1020C000002803D0A07940F00200A07170BD00008C
:1020D0007C070020645E002070B50E4DAC698CB1A9
:1020E0006878002650B1E86940B90120FFF717FB76
:1020F0006869E8610120FFF771FC6E702046FFF708
:1021000029FFAE61E87810B10020E87070BD0120B1
:10211000FBE700007C0700202DE9F0410546194847
:1021200000270C46007800F00F00012808D0A8888E
:10213000154E20F47040A8807179490703D004E05F
:10214000F020BDE8F08101217171717940EA013020
:10215000A8802846FFF7FEFE40B10C49284600F053
:102160005DFF070002D044F0800402E07079401C5B
:102170007071200604D5B17904F07F000843B07176
:102180003846DEE7460700207C070020645E00201A
:1021900070B5044681882288080B04250126B2F513
:1021A000807F06D9258021F47060A080E680082019
:1021B00011E00F4910B10A79904213D008710D490E
:1021C000204600F02BFF002811D02580A18821F4A3
:1021D0007061A180E68020812046BDE8704000212A
:1021E000FFF79ABF2046BDE87040FEF7F5B870BD16
:1021F0007C070020985E002070B5042501260F485A
:10220000FFF770FC04000FD000F0A6F850B1258055
:10221000A18821F47061A180E68020810021204600
:10222000FFF77AFF002CEAD105480078002803D098
:10223000BDE87040FFF728BE70BD0000985E00202A
:102240007C07002070B500242046FFF75FFC184D86
:10225000418869810088A8810120FFF757FC4288E6
:102260002A810088E881A9896B890B44834204D9BB
:102270001044884201D9162070BD0020FFF7AEFB44
:102280000120FFF7ABFB6889FEF777F8286110B1F2
:102290000021E97107E00120E8710A20FEF76DF8DE
:1022A000286100B90224FEF797F8204670BD0000AF
:1022B0007C070020F8B5264D00242046AC70FFF7BF
:1022C0002EFA0120FFF72BFAA86908B1FEF784F86F
:1022D000E86920B1A969884201D0FEF77DF86869F4
:1022E00038B1A969884204D0E969884201D0FEF773
:1022F00073F8AC616C61EC61EC7040F60E06ADF801
:102300000040022231466846FFF70EFCBDF800008F
:10231000022220F40070ADF8000031466846FFF755
:102320005BFC6C702C70AC712C716C710948FFF700
:10233000D9FB08B1FEF750F806483438FFF7D2FB56
:10234000002803D0BDE8F840FEF746B8F8BD00000D
:102350007C070020985E00208188C1F303210329B7
:1023600001D002207047FFF747B8000010B5FFF713
:102370000BFAFEF7D7FF044900200122488048608D
:1023800048700A7010BD00000C01002070B51B4899
:102390000078002831D01A481A4C007808B121780A
:1023A00019BB1949097801BB012580B9FFF76CFCFD
:1023B000410506D515482570007840B100F01AFE99
:1023C00005E01349098811B9000500D525704FF0C3
:1023D000E0254024C5F88041FEF7A8FD0D480078AF
:1023E00008B100F0F3FDC5F80041FFF713FAFEF75E
:1023F0002FFFBDE87040FFF713B870BD0C0100203F
:10240000400700203B0700203D070020390700203F
:10241000660700203A070020FEE7704700F01F0221
:10242000012191404009800000F1E020C0F88011B6
:10243000704700F01F02012191404009800000F127
:10244000E020C0F80011704700F01F020121914008
:102450004009800000F1E020C0F800117047000042
:1024600030B50F23C27801780125FAB1144A1268F9
:1024700001F1E02102F4E062C2F5E062C2F307225A
:10248000C2F10404D3404278A24084781C40144333
:10249000220181F80024007800F01F018D404009DE
:1024A000800000F1E020C0F8005130BD01F01F00B5
:1024B00085404809800000F1E020C0F8805130BD1F
:1024C0000CED00E002490843024908607047000033
:1024D0000000FA050CED00E06422B1FBF2F310B548
:1024E000047823440370B1FBF2F302FB13110A22B8
:1024F000B1FBF2F3447823444370B1FBF2F302FBE7
:1025000013113031817010BD2DE9FF41908955695B
:1025100098460F004FF00006C0F3032004D00728B0
:1025200002D009280AD026E02846FEF723F886B212
:102530005FEA080032D0324629462DE001240DE042
:10254000BC4209D12846FEF715F886B25FEA0800BA
:1025500011D0002EEFD10EE0641CA4B22846FEF785
:1025600009F805446D1CBC4204D82878FF2801D026
:10257000FE28E5D196B90C26B8F1000F0ED00D2239
:1025800008496846FEF715F839460DF10900FFF7CE
:10259000A3FF0D2269464046FEF70BF804B0304613
:1025A000BDE8F081A907002082890069C2F30322F7
:1025B000082A04D001EB410100EB410070470029DB
:1025C000FCD0801D7047F0B58A8905004FF00000EF
:1025D000C2F3032700D01020072F03D001234FF4AC
:1025E000187C31E00020F0BD082F13D00A6903EBFE
:1025F000430402EB440422881F2A28D00DDCA2F1F8
:102600000306092E19D2DFE806F0223118223131F3
:10261000181822000C69A41DEDE7624517D006DCEE
:10262000202A23D02E2A12D02F2A06D11EE0A2F56E
:102630000076623E1AD0012E18D0AB4202D26288D8
:10264000104480B25B1C9BB2AB42CDD9F0BD4FF6BB
:10265000F0760F303040AB42F4D20B2A01D0624505
:1026600002D16288104480B21030EAE74FF6E0767B
:102670001F303040AB42E5D2A2F50076623EDED09C
:10268000761EDCD02030DCE72DE9F04781462021A2
:1026900001FA09F11FFA81F8FEF7CAFD0446002687
:1026A0001BE02089B0F5805F16D35FEA090511D0E1
:1026B000277B00230BE0D9B22046FFF775FF808807
:1026C00010EA080F00D000255B1C9BB215B1BB427D
:1026D000F1D901E0761CB6B26468002CE1D1304635
:1026E000BDE8F0870A30704710B50446FEF7A0FD3C
:1026F00003E00189A14202D040680028F9D110BD51
:10270000F0B59489C4F30320E5B20024022603B394
:10271000072803D0082803D0012012E00020F0BDD4
:1027200090691269007812894243D21DD0080CE0EA
:1027300000EB4007136906EB4707401CDB5BC0B2A8
:102740001C44A842F4D9E41DE0080029E7D1801C0C
:10275000F0BD07280BD069B1082810690CD001EB37
:10276000410106EB4101405AC01DC008F0BD10698F
:102770004088F9E70120F0BD0089F5E72DE9F05F19
:102780008B468246202101FA0AF1BBF800000A9D1F
:102790001F4616461FFA81F9B0F5805F02D01C482B
:1027A000046827E0FEF744FD040024D13DB31B205C
:1027B000287024E02089B0F5805F1AD35FEA0A030D
:1027C00012D094F80C8000250BE029462046FFF734
:1027D000EBFE808810EA090F00D000236D1CEDB2DB
:1027E00013B14545F1D904E02089B61E27F8020B44
:1027F000B6B264681CB1012EDCD8218901E04FF625
:10280000FF710348ABF8001004603046BDE8F09F4C
:10281000300700202DE9FF4F85B098898846DDE913
:102820001249C0F303219A46174600F0FF0B4646B3
:102830004FF48053CDF80C800191072906D00598FC
:10284000984203D3DAF8180090F800B05FEA090064
:1028500007D007297DD0059898427AD3CDF80CB0DF
:102860001AE0D84503D9112009B0BDE8F08F3146F0
:102870005046FFF799FE808870B1B74900F0070213
:10288000097801F00F01B1EB420F05D9400701D0E3
:102890001A20E9E70620E7E7DAF81C503DB1CDF849
:1028A000009023463A4641460598A847DCE705983C
:1028B000B0F5805F3AD2B8F1000F37D050464146AC
:1028C000DAF81830FFF770FE4088C01DC20803EB2D
:1028D000880050F8041CC8071DD00023C1F34E0027
:1028E00040000AE030F8021B090A218005785B1CD1
:1028F00041EA052124F8021B9BB2B3EB520FF1D33E
:10290000D10707D0218801F47F412180008841EA66
:102910001020208019E131F8020B208031F8020BE1
:102920006080201D121FFDF744FE0EE10020029082
:10293000009004E1DAF81850002346B10598B0F58C
:10294000805F04D3F0B25146FFF73DFE03461809FD
:1029500000E0C0E005EB4007F1B25046FFF724FE6F
:1029600005467D482979007801F0070100F00F0045
:10297000B0EB410F7DD8464504D0B9F1000F07D028
:10298000464505D32EB90198072802D024F802BB8A
:10299000D3E02888B0F5E06F0DD36988082902D804
:1029A0002F3188B207E0102902D0202902D002E09E
:1029B000062000E007201F286ED012DC70D2DFE86E
:1029C00000F03A49496B70496B70708888889E9E08
:1029D0009E9E9E799E9E9E799E9E9E9E9E799E9E86
:1029E0004900342836D012DC302833D008DC2028C7
:1029F00057D02D282ED02E284ED02F287FD150E012
:102A0000312827D0322825D0332878D122E0B0F5DC
:102A1000187F5ED006DC35281CD036281AD037281F
:102A20006DD117E0A0F50070613852D0012850D068
:102A3000022864D14DE0B9F1000F60D06888010729
:102A400003D0C118090700D1A41CC0F3031004EB84
:102A5000400451E06888414903F00F0C31F8100040
:102A600000FA0CF082B23888190700D12180218841
:102A700000E046E0B9F1000F00EA020002D0014395
:102A8000218003E020FA0CF008432080A878184445
:102A9000000731D1A41C2FE018071CD1388806E0AC
:102AA0002DE0180717D1388824F8020B788824F80D
:102AB000020B21E018070ED1388824F8020B788821
:102AC00024F8020BB88824F8040BF88824F8020CC8
:102AD00012E0180701D00520C6E668883946C01DF7
:102AE000C2082046FDF765FD6888010904EB410432
:102AF000000701D020782080012002901DE01820DE
:102B0000B2E60020190700D1218069880A0704D0A5
:102B10001944090701D124F8021F002103E0401CD9
:102B200024F8021FC0B2AA78C2F303128242F6D878
:102B3000287940070BD01A200090761CB6B2039873
:102B400086427FF6F7AE029818B100208CE6062088
:102B5000F2E7009888E60000460700208C7700081E
:102B60002DE9FF4F87B083460A9889461746818929
:102B7000DDE9144AC1F303220020C9B205910DF129
:102B8000080801464E4688E84600ABF5D053A3F549
:102B90000471ABF5B0550191072A0ED00A988069EF
:102BA000007810F0FF0008D11F2905D94FF40071FB
:102BB0008D4201D38B4200D205985FEA0A0108D00A
:102BC000072A72D05FEA090101D107B12078049089
:102BD0001AE0814503D911200BB0BDE8F08F4946BA
:102BE0000A98FFF7E1FC80880E2101EA9002B649BD
:102BF000097801F00F018A4206D210F0380F01D097
:102C00001A20E9E70720E7E7B9F1000F10D0019893
:102C10001F2805D94FF40070854201D3834207D2A3
:102C20000A988069007810F0FF0F01D0012002900F
:102C30000A98056A3DB123463A4649465846CDF8BA
:102C400000A0A847C8E707204FF000080090002F19
:102C500077D02DE10A98F1B28569FFF7A5FC074608
:102C6000F0B20A99FFF7AFFC0146BA880E2000EADD
:102C700092029548007800F00F00824278D316B196
:102C8000080905EB40054E4504D0BAF1000F70D09D
:102C90004E456ED366B90398072809D02088059A57
:102CA000C1B28A4202D2132096E7DCE0288081E09C
:102CB0003888B0F5E06F0DD37A88082A02D82F3211
:102CC00090B207E0102A02D0202A02D002E00620AB
:102CD00000E007201F2871D012DC6ED2DFE800F080
:102CE0003B4A4A6E9D4A6E9D9DC1C1C1D4D4D4D485
:102CF000D4B2D4D4D4B2D4D4D4D4D4B2D4D44A0058
:102D0000342837D012DC302834D008DC202805D015
:102D10002D282FD02E2851D02F284ED17DE03128BC
:102D200028D0322826D0332847D123E0B0F5187FA9
:102D300010D007DC35281DD036281BD037283CD1D1
:102D400018E0BCE0A0F50070613803D0012801D084
:102D5000022832D185E0BAF1000F2ED07888020720
:102D600003D00144090700D1A41CC0F303107CE088
:102D70008CE09BE07A88554801F00F0C30F8122067
:102D800002FA0CF083B228889843BAF1000F03D0FE
:102D900022881A40024308E0238833EA020823D13C
:102DA000134003FA0CF303439AB22A80B87808441C
:102DB00000075CD1A41C5AE000E065E0080752D18E
:102DC0002788029810B12888B84232D101981F286C
:102DD0000CD8A7F5B0504FF40071884206D3A7F580
:102DE000D050884202D30FB11220F5E6ABF5E05186
:102DF000323901D0491E0ED1012E0CD12888B8429B
:102E000006D039465846FEF7FDFB00900028ECD16D
:102E10002F49012008702F80CCE7080723D10298A2
:102E200048B128882188884203D16888618888420F
:102E300001D01C20D0E634F8020B288034F8020BB5
:102E4000688014E008070ED134F8020B288034F8AB
:102E5000020B688034F8040BA88034F8020CE88078
:102E600005E0080706D00520B6E604EB40044FF065
:102E700001081BE078882146C01DC2082846FDF7DE
:102E800098FB78880009F0E71820A5E636B1788825
:102E9000020706D00144090702D002E0A41C03E0A7
:102EA000A41C000904EB400418200090761CB6B264
:102EB000049886427FF6CEAEB8F1000F01D0002014
:102EC0008AE6009888E60000460700208C77000814
:102ED000A80700202DE9F0413048007800285BD099
:102EE000FEF7E0FE04462E4F2E4D2F4E400525D511
:102EF0002E48007828B12E48007810B12D490020C6
:102F00000880308D08B1401E3085FEF71FFF2A492A
:102F1000012008702948007810B100F06BF80DE02E
:102F2000022239882648FEF72CFE3888298802229A
:102F30000844801E81B22248FEF723FE200503D5F7
:102F4000288808B9FEF702FF7088012801D1FDF733
:102F5000EDFF1C481C4C007830B16088012801D07E
:102F6000222801D100F032F8FEF79CFE400513D56F
:102F7000708D0222401C7085608539881048FEF7EC
:102F800000FE38882988BDE8F0410844801E81B2DF
:102F900002220B48FEF7F5BDBDE8F0814007002096
:102FA0006C07002066070020CC5E00203E07002052
:102FB0003D0700204C0700203B0700203907002078
:102FC000720700203A070020105F002010B5064865
:102FD000FEF74CF80548028805480188BDE8104016
:102FE0000148FEF726BE0000FC0700206407002011
:102FF0006E070020064810B502880648018806487A
:10300000FEF7BFFDBDE810400348FEF765B80000BD
:10301000660700206C070020B807002010B54B8819
:103020008C885A1C92B2944200D100220C8894429F
:1030300001D1072010BD01EB830398604A80002076
:1030400010BD0000044A0029116801D0014300E0CE
:10305000814311607047000030380240044A002963
:10306000116801D0014300E0814311607047000006
:1030700040380240044A0029116801D0014300E0B1
:10308000814311607047000020380240044A002943
:10309000116801D0014300E08143116070470000D6
:1030A00044380240044A0029116801D0014300E07D
:1030B00081431160704700002438024070B5204BF6
:1030C0001968204C11F00C0104D06610042903D0BB
:1030D000082903D004601BE0066019E0184A121F9B
:1030E0001168C1F38055116801F03F0115B1B6FBBD
:1030F000F1F101E0B4FBF1F114681268C4F3881433
:103100006143C2F30142521C5200B1FBF2F1016073
:1031100019680F2202EA11110B4A545C0168E14060
:1031200041601C68072505EA9424145D21FA04F423
:1031300084601B6805EA5333D25CD140C16070BD26
:10314000083802400024F4007806002010B5184624
:10315000029B0BB1052010BD49B106290CD00022FD
:103160000D4B07290DD0092910D0112010BD0A4997
:103170001839098801800DE062B11146FDF766FA41
:1031800008E002705988C1F3803102E0027059886A
:10319000C90B0170002010BD6800002038B504463E
:1031A0004FF40175022229466846FEF7BDFCBDF8C2
:1031B000002006202240ADF80020FFF72FF9022260
:1031C00029466846FEF708FD0620FFF73DF938BDA1
:1031D0002DE9F04F89B00646018900880890AD4876
:1031E000002401F0FF09007809F0E00BA046A24698
:1031F000254618B1092009B0BDE8F08F5FEA0B0041
:1032000006D0202805D0402803D0BBF1600F7DD127
:1032100023E170894FF6FF7202EA002202EB1121CE
:1032200089B2000ACDE903010846FFF75DFA029072
:1032300000286CD000270097DDE9031009F0100387
:10324000029AFFF75DFA824606F10C00011D554611
:103250000791BBF1400F05D009F00201BBF1200F2F
:1032600016D03CE008990A2930D12946BAF1040F5A
:1032700007D8BAF1000F04D0002101800746418031
:103280002DE085480588103D8D4226D3079F26E016
:1032900041B108990A2919D1C9F38101C1F1040585
:1032A00007461CE0B089F18900EB01457B4805F138
:1032B00010010088814204D90899801F814205D1FC
:1032C00006E0089805F10A01884201D0082092E73B
:1032D000DDE907700A38854201D9012000905FEAD4
:1032E000C96004D503984FF00108012833D800982D
:1032F00098B3684F01207871387287F80680049877
:1033000038820398F8710298386301E0C0E0A2E0C7
:10331000BBF1400F19D0FD62386A18B1FDF75CF8B7
:1033200000203862F86A401C20F00100FDF725F803
:10333000386268B1BBF1400F12D0089A07990A3A77
:103340001546FDF736F900201DE0C7F82CA0E3E78D
:10335000B8F1000F02D005248CE033E0042489E0AA
:10336000CDE90008DDE903105246029BFFF752FA4F
:10337000040002D0FF2C09D006E02A46396A0798DB
:10338000FDF717F960203871BD6271E00420787094
:1033900087F802800398F87004987881C7F814A021
:1033A000386AB861029809F0F001C069F86101203B
:1033B00038707E62308920F0FF0008433081602041
:1033C000387160E0BAF1000F06D1324804990182E9
:1033D0000399C17102990163CDE90078029BBBF1A9
:1033E000400F08D0DDE903102A46FFF7B9FB044679
:1033F000FF2818D03EE0DDE903105246FFF70AFA35
:103400000446FF2836D123480321417080F802800A
:103410000399C17004994181C0E905A70299C9695E
:10342000C16101210DE01B480121417080F802803B
:10343000039AC270049A4281C0E90557029A126A3F
:10344000C26101704662308909F0F00120F0FF008E
:103450000843308117E008240CE00E4909798B45B8
:1034600016D1BBF1000F30460FD000F065FE0446C8
:10347000FF2C08D0CDE900A6ABB209F010025946E6
:10348000204600F0FDFD0020B5E600F009FDEEE766
:103490000324EFE7FC0600208407002086070020B5
:1034A0002DE9FF5F002604468DF80460007A00F0E5
:1034B0007F05022003902088052D05D0082805D21D
:1034C000062004B0BDE8F09F0A28F9D3864FDFF844
:1034D0001C924FF48058012D05D0032D68D0052D86
:1034E00066D00320D7E0A089052860D8C5B20E2297
:1034F00021467F48FDF75DF8681E00F0FF0A0ED2F6
:10350000A9F80C6000252846FFF7BEF804EB45013A
:103510006D1CEDB2C881052DF5D3122032E0B9F84B
:103520000C004D4648B1398804F10C030C398AB2BD
:10353000E989ADF80810401E14E05046FFF7A4F8E2
:10354000ADF80880398804F10E030E398AB2B2EB67
:10355000400F09D2911C89B2C2EB40000844401EC2
:1035600090FBF1F0A88100E0AE8101A8009002A9D3
:103570005046FFF703F9BDF80810E9813988081AA9
:10358000801F80B220809DF80400002874D120891B
:1035900020F07F0040F002002081B9F80C1061811A
:1035A000002904D040F0800020818220039085E033
:1035B000A089ADF80800404501D205206BE0FFF777
:1035C00093F85FEA000A7CD0032D1ED094F80E8099
:1035D0005046FFF787F88078414680455AD85046D4
:1035E000FEF7E2FF016821618088A082A07BE08174
:1035F0005046FFF777F8408804F1160BC0F303201C
:10360000082820D009281ED020E0FFF76BF80068BA
:10361000C4F80E00002352461946BDF80800FEF714
:1036200073FF39880C3080B2891F884201D90C2081
:103630002CE004F1120352460021BDF80800FEF709
:1036400063FF0C3021E0B8F1000F0ED0002352468A
:103650004146BDF80800FEF757FF3988103080B2A8
:10366000891F884209D9102010E00D2221495846AF
:10367000FCF79FFF1C2009E00FE05B4652464146E5
:10368000BDF80800FEF740FF103080B29DF804102E
:10369000F9B102E011208DF804000A202080208971
:1036A00020F07F0040F007002081668112489DF8DD
:1036B000041050F82100E060A9F80C60204603993E
:1036C00000E00FE0FEF728FD08B10C480460002080
:1036D000F7E66681208020896D1C20F07F0028435A
:1036E0002081EBE70820D6E784070020FC060020B5
:1036F000545C0020A907002014770008340700203C
:103700002DE9FC47204C81460026207813460D46C3
:10371000002837D0D4F824C09CF8080000F0E00856
:1037200000F01007B8F1400F21D118480088103878
:1037300086B22046406A1030AE420DD2012161713E
:103740002172A7716021E562217132461946236218
:10375000FCF72FFFA6620AE0691E032901D80CF1CD
:103760000C00834203D02A461946FCF722FF0020B2
:103770002070606A3346CDE900503A4641464846DB
:1037800000F07EFCBDE8FC87FC06002084070020DA
:1037900070B5012188B00846FFF754FC0225E020EF
:1037A0008DF818500024264E05908DF81A408DF89B
:1037B000195005A93046FEF745F910200590012063
:1037C0008DF818008DF81A408DF8195005A930466B
:1037D000FEF738F9052211463046FEF76FF905224B
:1037E00006213046FEF76AF9052207213046FEF72A
:1037F00065F901210803FFF749FCADF800404FF4DB
:103800008270ADF80200ADF808402802ADF80A0059
:103810000820ADF80C00ADF80440ADF80E400720CC
:10382000084CADF81000ADF806506946204600F08F
:1038300088FA0121204600F06FFA08B070BD000040
:10384000000002400030014070B50B4C05460221DB
:10385000204600F06BFA0028F9D02946204600F0F7
:103860006EFA0121204600F061FA0028F9D02046C6
:1038700000F063FAC0B270BD0030014070B5040AB8
:10388000C0B2FFF7E1FF05462046FFF7DDFF45EA3E
:10389000002070BD7CB501210220FFF7D3FB02247C
:1038A0004FF460408DF804400025144E00908DF8D0
:1038B00006508DF8054069463046FEF7C3F8E00231
:1038C000009001208DF804008DF806508DF8054019
:1038D00069463046FEF7B6F805220D213046FEF760
:1038E000EDF805220E213046FEF7E8F805220F21FB
:1038F0003046FEF7E3F800F003F87CBD0004024018
:1039000010B5012186B08803FFF7A8FB144C0021F5
:10391000204600F001FA0021ADF800104FF482704B
:10392000ADF80200ADF804100220ADF80600012049
:10393000ADF808004002ADF80A000820ADF80C0010
:103940000720ADF80E10ADF810006946204600F0D3
:10395000F8F90121204600F0DFF906B010BD0000A3
:1039600000380040002001F03DBA10B5FFF7FAFF23
:1039700060F30704FFF7F6FF60F30F24FFF7F2FF91
:1039800060F31744FFF7EEFF60F31F64204610BD9D
:10399000B1F5805F01D300F033B8D2B200F0A2B825
:1039A0002DE9F041154F04464FF480563146384614
:1039B000FEF794F80B2001F015FA200A01F012FA34
:1039C000E0B201F00FFA012001F00CFAFFF7CAFF94
:1039D00060F30705FFF7C6FF60F30F25FFF7C2FF8F
:1039E00060F31745FFF7BEFF60F31F6531463846A9
:1039F000FEF776F82846BDE8F0810000000402409A
:103A00002DE9F8430D4607464FF080414FF44378C7
:103A1000144600264046009100F0ACF84046FFF7FF
:103A2000BFFF00909DF803000006F7D4ADF80050EA
:103A3000ADF802404FF44270009900F09BF84FF04F
:103A400000414046009100F095F84046FFF7A8FF7E
:103A500000909DF80000C007F7D00420FFF7A0FFFA
:103A6000009005F00300C0F10401A14200DD2146F1
:103A7000CDB20DEB0001B8192A46FCF79AFD601B88
:103A800084B27019DFF85890C5B24FF4805841469F
:103A90004846FEF723F80B2001F0A4F9042000F0BB
:103AA0004DF8012001F09EF911E0FFF75EFF009054
:103AB000042C01D9042000E02046C6B27819324611
:103AC0006946FCF776FDA819C5B2A01B84B2002C8C
:103AD000EBD141464846FEF703F8BDE8F883000005
:103AE00000040240F8B50546002000908DF8001053
:103AF000080A8DF801008DF80220C0208DF803001F
:103B00004FF4417614463046009900F033F83046C1
:103B1000FFF746FF00909DF803000006F7D44FF42E
:103B20004070FFF73DFF00900021684603E0425CD3
:103B30006A54491CC9B2A142F9D3F8BD10B5044674
:103B4000000A01F04FF9E0B2BDE8104001F04AB9B7
:103B500010B50446C0B201F045F9C4F3072001F0E6
:103B600041F9C4F3074001F03DF9200EBDE81040D3
:103B700001F038B92DE9F041124F0C4605464FF4DB
:103B8000805631463846FDF7A9FF022001F02AF998
:103B9000280A01F027F9E8B201F024F9E0B201F0B7
:103BA00021F9C4F3072001F01DF9C4F3074001F027
:103BB00019F9200E01F016F931463846BDE8F041FA
:103BC000FDF78EBF000402402DE9F84F0D46074671
:103BD0004FF000094FF080414FF4457814464E46AF
:103BE00040460091FFF7C6FF4046FFF7D9FE009020
:103BF0009DF803000006F7D4ADF80050ADF8024080
:103C00004FF444700099FFF7B5FF4FF00041404674
:103C10000091FFF7AFFF4046FFF7C2FE00909DF80E
:103C20000000C007F7D005F00300C0F10401A14275
:103C300000DD2146CDB2C846B91968442A46CDF800
:103C40000090FCF7B6FC20200099FFF793FF601B63
:103C500084B27019DFF854A0C5B24FF480594946B8
:103C60005046FDF73BFF022001F0BCF82020FFF793
:103C700065FF13E0042C01D9042000E02046C6B201
:103C8000791932466846CDF80080FCF792FC00981E
:103C9000FFF75EFFA819C5B2A01B84B2002CE9D1C2
:103CA00049465046FDF71CFFBDE8F88F000402406E
:103CB00038B50D4600210B4600911446694603E0D5
:103CC000C25CCA545B1CDBB2A342F9D34FF4407010
:103CD0000099FFF74FFF8DF80050280A8DF801007A
:103CE0008DF8024080208DF803004FF44174204687
:103CF0000099FFF73FFF2046FFF752FE00909DF826
:103D000003000006F7D438BDB1F5805F01D3FFF79B
:103D10005BBFD2B2FFF7CCBF0029018802D041F0CF
:103D2000400101E021F0400101807047024600207F
:103D300012890A4200D00120704780897047818132
:103D4000704730B502884C8802F441530A88CD8808
:103D500022438C882C4322430C8922434C892243E2
:103D60008C892243CC8922431A430280828B22F41D
:103D700000628283098A018230BD000030B585B0BF
:103D800001210420FFF75EF901218803FFF77EF986
:103D900002208DF811000825002403958DF81040AD
:103DA00003A91448FDF74EFE0321022000F060F83D
:103DB0000820FDF7D5FD8DF804400C208DF8050096
:103DC000009501258DF806506846FDF7CFFD4FF4AC
:103DD000C060FEF777FB09208DF808008DF80940D8
:103DE0008DF80A408DF80B5002A8FEF739FB05B09C
:103DF00030BD00000008024030B585B0012104202C
:103E0000FFF720F901218803FFF740F902258DF81B
:103E10001150002403958DF8104003A91348FDF7B5
:103E200011FE0121022000F023F80220FDF798FD89
:103E30008DF804400C208DF80500009501258DF8C3
:103E400006506846FDF792FD4FF4C060FEF73AFB5E
:103E500007208DF808008DF809408DF80A408DF88C
:103E60000B5002A8FEF7FCFA05B030BD0008024076
:103E700010B58A0721F003040849120F21440F23CB
:103E8000D1F8084893409C43C1F80848D1F8083855
:103E900090400343C1F8083810BD000000300140D5
:103EA0002DE9FC47DFF8D09104460289002699F8F5
:103EB000080002F010013746814201D10126AFE02F
:103EC0006E48CC46008889F808100938D9F82010C7
:103ED00080B200297AD0DCE90A359846ED1AD3077A
:103EE0004FF0010A14D0854210D82088C01E8542A8
:103EF00005D8C2F34203C3F10703AB4203D0072D39
:103F000004D9854202D18CF8057006E00E2687E0C0
:103F10008CF805A08542F9D9054657485FEAC87371
:103F2000806A20F0010018D00A5C0A52DCF82800F0
:103F3000B4F808C020F001000CF47F4C42EA0C02F7
:103F40000A52D9F828006A1E20F00100084404F142
:103F50000A01801CFCF72DFB1AE0130AA27A05F176
:103F6000010843EA02220A5201200EE004EB40025B
:103F70001389927A1B0A43EA0222DCF8283000EB0C
:103F80005303401C21F8132080B2B0EB580FEDD33F
:103F900099F80500C846B8B998F80620D8F8201056
:103FA000CDE900124046D0E90B2398F80710B8F885
:103FB0001000FEF7D5FD0646FF2808D0D8F82000EF
:103FC000FCF70AFAC8F82070C6B329E027E00221FE
:103FD00088F8011098F8061088F8021098F8071071
:103FE00088F80310B8F81010A8F80A10D8F82C10A8
:103FF000C8F81410D8F82010C8F81810D8F83010E5
:104000004046096AC8F81C1088F800A0C8F8244087
:1040100047710771FF20C8F82870BDE8FC870326A8
:1040200089F8057089F80470D9F820004C4610B161
:10403000FCF7D2F92762A7623046EEE7FFE70A20D5
:104040002080E08820F4704040F44050E08098F8F0
:104050000810404609B1302100E02021218141793A
:10406000012903D0876288F80470E5E7816A294452
:10407000C8F82810E0E70000FC06002086070020B2
:104080002DE9F0410746DDE90604602904D019B1A5
:10409000258905F47F452581E5880A2625F47045A4
:1040A0009FB1268045F40050E08080202081204888
:1040B00050F82700E06002212046FEF72DF8002886
:1040C00001D01C480460BDE8F08145F44055E5800E
:1040D000402908D031B36029EDD02680208940F0F6
:1040E00060002081E7E7411E03290BD82680218943
:1040F000C0B21143C0F10400432242EA80000143F0
:104100002181D8E7834202D20A33238002E000F102
:104110000A012180A081000CE081208942F0410148
:104120000843DEE72680208940F02000D9E7000020
:1041300014770008340700202DE9F047404F04466B
:10414000007A397A002600F01000884201D1012659
:104150006FE03C494FF00009098838720939D7F8F7
:1041600028C08DB2F86A0CEB0501814204D9A0EB9E
:104170000C0587F8059001E0012078713048237A1A
:104180002381026A806A5FEACC7820F001010CD0BA
:10419000505A114400F47F40034323816A1E04F106
:1041A0000A00891CFCF705FA1AE0515C002043EA7A
:1041B00001214FEA5C0C21810FE0396A00EB0C020F
:1041C00031F8123001EB42011B0A897804EB4002FE
:1041D00043EA0121401C518180B2B0EB550FECD372
:1041E000E08820F4704040F44050E080208920F0C6
:1041F000FF00208179793A7A09B942F0010210432F
:104200002081072D08D20A2020802089C5F10702CD
:1042100040EA4200208101E0E81C208001290BD007
:10422000386AFCF7D9F8C7F82090C7F8289087F8C3
:1042300004903046BDE8F087B86A2844B862F8E7D1
:10424000FC0600208407002038B504464FF40175B1
:10425000022229466846FDF767FCBDF800200620CB
:104260002243ADF80020FEF7D9F80222294668461D
:10427000FDF7B2FC0620FEF7E7F838BD38B50D4C67
:10428000ADF80010A27B824200D0A073A1F57F4060
:10429000FF3805D002224FF49A716846FDF79CFC66
:1042A000A07BADF8000002224FF498716846FDF73C
:1042B00093FC38BD380700200CB500222749009236
:1042C0000192086840F4803008604FF4A043086809
:1042D00000F4003001900098401C0090019810B943
:1042E00000989842F3D10868800334D501200190EA
:1042F0001A484030026842F0805202601848026852
:1043000042F44042026015480830026802600268C8
:1043100042F400420260026842F4A0520260031FAD
:10432000104A1A600A6842F080720A600A689201B4
:10433000FCD50D4940F205720A60016821F00301C5
:104340000160016841F0020101600168C1F381016F
:104350000229FAD10CBD01920CBD000000380240C8
:104360000070004008544007003C02402DE9F04F27
:1043700085B04FF0000BEE49EE4AADF800B0ADF855
:1043800004B0CDF808B0CDF80CB0DFF8AC83898963
:1043900094890327A8F838B05D463E460C4088F85B
:1043A00003B00220FDF7B2FB0288A8F834200079A0
:1043B000800700D501260320FDF7A8FB0188A8F897
:1043C00036100079800700D50127DC48B8F82CC0EA
:1043D000DFF86CA30CFB07130288934204DDBAF8E4
:1043E0000000104488420AD8D648DFF85C93008861
:1043F000834208DDB9F8003003448B4203D91E2004
:1044000005B0BDE8F08FB8F83430B8F82E7007FB6F
:104410000636964204DDBAF800703A449A420DD846
:10442000864204DDB9F800201044984206D8C246FE
:104430008E4205DD01EB0C00984201D91D20DFE71B
:1044400002224FF4186104A8FDF76EFB04224FF41A
:104450001A6102A8FDF768FB042240F6A41103A824
:10446000FDF762FBB24EDFF8CC92BDF810207088E9
:10447000B9F80210039B12F4106F26D012F4C06F2B
:104480003FD0970501D457053BD43CB1670701D411
:10449000970536D4270701D4570532D4029F47B178
:1044A000DFF8A8C2DFF8A882BC44C44501D3362097
:1044B000A6E75FEA825C08D55FEA425C05D523B1D6
:1044C000BB4202D30125E4061BD5A24C2778012468
:1044D000CFB112F4106F0CD0570503D4032810D0BD
:1044E00003290ED0920532D402280AD0022908D01E
:1044F0002DE0022805D0032803D0022901D003298A
:1045000034D130207CE7BAF82E0012F4106F03D0BB
:10451000A8B19DB1032012E028B1BAF82C100120F7
:1045200051B1222108E0BAF82C0000284FF0000019
:1045300001D0012100E00021B48308E00220BAF894
:104540002C1021B1510501D5032100E002210328DF
:1045500002D0022805D009E0029A7262C9F824202C
:1045600004E0029A726297B2C9F824709AF809209E
:1045700057460AB938B131B150EA01024FF4806AA6
:1045800003D03C7203E029203AE73A7A4AB1FA8D27
:1045900012B1A7F838A004E0BA8D12B14FF400624E
:1045A0003A87022805D0032803D0022901D0032925
:1045B00004D17C71FA8D0AB9A7F838B07080A9F8D7
:1045C0000210A7F824B0A7F826B0A7F816B0D8466E
:1045D000A7F814B0DDB1029883420BD3B3FBF0F11E
:1045E000B3FBF0F289B200FB1232F9821AB9491C0E
:1045F000F98200E0FC82B3FBF0F1B3FBF0F289B288
:1046000000FB1230B98440B1491CB98405E002288E
:1046100000D1FC82032900D0BC844F4802224FF411
:104620008461A0F8008001A8FDF77EFABDF80400BF
:10463000F98D09B300B3022251466846FDF774FABA
:10464000BDF8000080B1BDF80410801C484346F25C
:10465000A7110844491CB0FBF1F00004000C788657
:1046600006D0387930B10AE0ADF80480A7F832807E
:10467000387920B11F20C3E6ADF80080F6E7387A1C
:1046800028B1F88D18B1388F40F480603887A7F8CA
:104690001E80A7F81C80A7F82080A7F8228087F842
:1046A000068087F80780A7F8188089F8408086F888
:1046B0004080A6F82880BDF8102090052AD5234D0B
:1046C00002996D420A2361B1B1FBF5F0052801D2D0
:1046D000FC8306E04FF6FF7606EA4000B0FBF3F0FD
:1046E000F883500516D50398884201D2F88B10E064
:1046F000B0FBF5F0052801D27C8406E04FF6FF718F
:1047000001EA4000B0FBF3F07884788CF98B00EB81
:1047100051007884F88D10B10220FDF75FF9B88D53
:1047200010B10320FDF75AF9FEF750FC002067E6B0
:10473000CC5E0020105F0020380700208A07002090
:104740008407002088070020860700206079FEFF8C
:1047500061794EC3A8070020B60700200649FF2054
:104760008A7A0AB1088D70474A79002AFBD0C8229C
:104770000A8300224A8370473807002010B5134C83
:10478000E08D10B10220FCF7CAFFA08D10B103200C
:10479000FCF7C5FF4FF2F330FEF700FD0020E0709C
:1047A00020726071A071E071E082A082E083A0833A
:1047B000208460840649A084E08481F8400020833E
:1047C00004492071A070087010BD00003807002057
:1047D000105F0020A807002002480021C17041702E
:1047E00070470000380700202DE9F04730480025C9
:1047F000058030480078002858D02F4EDFF8BC8064
:10480000307820B1B8F80010491CA8F800102C48E6
:10481000018841B32B4C2C482C4A278800881288E9
:10482000DFF8AC908F4215D92A49098940B1DFF8E9
:10483000A8C0BCF828308B4202D8DB1CACF828306A
:1048400042B1A8B9B9F82800884205D8C01CA9F817
:10485000280001E060B95AB1FDF724FA000503D43D
:104860002088401C208005E02580A9F8285001E020
:104870007F1C27801948007820B91948007808B1B2
:10488000FEF7B8FBFCF752FB307800280ED0154C31
:10489000208800280AD0B8F800104646884205D182
:1048A000FEF794FB2088012800D13580BDE8F08711
:1048B000540700203D0700203A0700205E07002033
:1048C0004E0700204C0700206607002064070020E8
:1048D000105F00209C070020CC5E002040070020D5
:1048E000390700205C07002010B509480024048027
:1048F0000848007840B108484088032804D1074898
:10490000008808B9FEF762FB0548048010BD00006E
:10491000580700203A070020105F00205C070020A5
:104920005E0700204FF0E0210428086903D020F042
:1049300004000861704740F00400FAE710B501F088
:1049400039FF012803D0BDE8104001F027BC10BD9D
:10495000124810B5016841F4700101601048016807
:1049600041F0010101600E4A002108321160026825
:104970000C4B1A400260031D0B4A1A60026822F4B5
:104980008022026006480C300160FFF795FC034965
:104990004FF000608039086010BD000088ED00E035
:1049A00000380240FFFFF6FE1030002410B5FCF77F
:1049B000CFFE0121BDE81040880700F003B8C943CD
:1049C00001827047C943018270470029018802D0E3
:1049D00041F0010101E021F00101018070473EB585
:1049E000044601210846FEF739FB4FF08045284672
:1049F00000F01EF8C82014FB00F001902320ADF851
:104A000000000020ADF80800ADF802006946284615
:104A100000F0BEF801212846FFF7D1FF0122114620
:104A2000284600F0ADF801212846FFF7CEFF3EBD35
:104A3000464910B5884206D101210846FEF732FBEF
:104A4000002101205BE0B0F1804F09D0404988424D
:104A50000DD101210220FEF70DFB0021022070E0A4
:104A600001210846FEF706FB0021012069E03949D3
:104A7000884206D101210420FEF7FCFA002104201F
:104A80005FE03549884206D101210820FEF7F2FA9D
:104A90000021082055E03149884206D1012110202B
:104AA000FEF7E8FA002110204BE02D49884206D19C
:104AB00001212020FEF7DEFA0021202041E02949D3
:104AC000884206D101210220FEF7ECFA00210220E3
:104AD00015E02549884202D101210C040AE023494E
:104AE000884202D101214C0404E0214988420AD1C4
:104AF00001218C042046FEF7D5FA00212046BDE8AE
:104B00001040FEF7CFBA1B49884206D10121402050
:104B1000FEF7B0FA0021402013E01749884206D181
:104B200001218020FEF7A6FA0021802009E0134928
:104B300088420AD1841501212046FEF79BFA002104
:104B40002046BDE81040FEF795BA10BD00000140B8
:104B50000004004000080040000C0040001000402D
:104B600000140040000401400040014000440140A6
:104B70000048014000180040001C00400020004098
:104B8000002A828901D00A4300E08A43828170476B
:104B900030B50288164C174DA0420DD0A8420BD05C
:104BA000B0F1804F08D0144B984205D0134B984277
:104BB00002D0134B984203D122F070034A881A4363
:104BC000104B984206D0104B984203D022F4407309
:104BD0000A891A4302804A68C2620A880285A04292
:104BE00001D0A84201D1897A01860121818230BD9C
:104BF00000000140000401400004004000080040A3
:104C0000000C004000100040001400404FF6FF7000
:104C1000FEF734BE70B5154C40F22551204600F029
:104C200035F800280ED0204600F0BEF8104AC1B278
:104C30001088030406D444044FF0000306D50A2963
:104C400001D0138070BD40F400400DE00D2909D063
:104C5000C0F30D04074D401C80B229551080C728B1
:104C6000EFD870BD40F48040108070BD001001404E
:104C700072060020400800200029818902D041F4FA
:104C8000005101E021F400518181704770B501F0BD
:104C90001F0501260024C1F3421306FA05F2012B79
:104CA0000FD0022B0FD0838A4FEA112100881342C4
:104CB00006FA01F600EA060001D000B10124204600
:104CC00070BD8389F0E7038AEEE710B5C1F34213A4
:104CD00001F01F040121A140012B07D0022B07D0B6
:104CE0001430002A026805D00A4304E00C30F8E7CB
:104CF0001030F6E78A43026010BD00007FB504461D
:104D0000008A0D46C98820F4405001432182A089C1
:104D100041F20C618843A9882A8911436A890243B8
:104D20001143A181A08A20F44071A8890843A08280
:104D30006846FEF7C3F91A48844202D019488442F3
:104D400001D1039800E00298A189090400EBC00199
:104D500001EB0010296801D5490000E08900B0FB93
:104D6000F1F06422B0FBF2F109010B096FF01805B4
:104D70006B4300EB8300A3891D044FF0320306D57B
:104D800003EBC000B0FBF2F000F0070005E003EB1E
:104D90000010B0FBF2F000F00F00084320817FBD4F
:104DA00000100140001401408088C0F308007047E3
:104DB00038B50024ADF80040022240F202516846A6
:104DC000FCF7B2FEBDF800000449020501D4C0049E
:104DD00001D50C7038BD0120087038BD380700209F
:104DE000FEE7000070B50B4C054602212046FEF799
:104DF0009DFF0028F9D029462046FEF7A0FF01219B
:104E00002046FEF793FF0028F9D02046FEF795FFD5
:104E1000C0B270BD003800407047704710B50446FE
:104E20000420FFF77FFD0A484FF47A71047014FBE9
:104E300001F1012242804FF0E020026942F00202BB
:104E400002614161016941F00101016110BD000091
:104E50006E060020024C0520FFF7D8FE2080FAE7FE
:104E60004406002003490A885206FCD5C2B28A8053
:104E70007047000000100140024C0520FFF7C6FEFD
:104E80002080FAE74406002070B5FCF717FFFDF715
:104E90006DFA084D0120084C2870FDF777FA0520BF
:104EA000FFF7B4FE208028780128F6D0BDE87040D6
:104EB000FCF74ABF14010020440600201CB54FF443
:104EC0004070FDF7FFFAA820FFF7A8FF4FF4E1308C
:104ED00000F040FDFCF7B8FFFEF75AFC0649012040
:104EE000CDE900010023802204A1074801F036FC2F
:104EF00001F03AF800201CBD48060020737461726E
:104F0000745F7461736B0000C95800082DE9F041AB
:104F1000184E0F460446F5683068001D00F070FD1D
:104F200038B9306890F82C100120884031698143ED
:104F30003161601C07D137B13168BDE8F0410E48DE
:104F4000091D00F095BD30682C44AC4244603168C6
:104F500005D2B06BBDE8F041091D00F071BD706B6A
:104F6000091D00F06DFDB06A844200D2B462BDE854
:104F7000F081000088060020180C00202DE9F04187
:104F8000054600F081FD2D4EB068401CB0603068D1
:104F90002B4F10B1706930B32BE03560B068012839
:104FA00027D1002404EB840007EB800000F03AFDD9
:104FB000641C202CF6D3234800F034FD2148143023
:104FC00000F030FD1F48283000F02CFD1D483C301B
:104FD00000F028FD1B48503000F024FD1948706394
:104FE0001430B06305E03068E96AC06A884200D8CE
:104FF0003560706A0121401C70626864E86A326939
:1050000081401143316100EB800007EB8000291DD6
:1050100000F02EFD00F074FD706900280CD030689F
:10502000E96AC06A884207D207494FF08050086099
:10503000BFF34F8FBFF36F8FBDE8F081880600206C
:1050400048090020C80B002004ED00E010B500F076
:105050001BFD0E4C2068A0B90D4800F0E3FC0C4885
:10506000143000F0DFFC0A48E060143020610022B8
:105070001021052001F0A8F8206010B105A100F072
:1050800015FEBDE8104000F03BBD0000C406002046
:105090002C0C0020546D72510000000070B5124EAF
:1050A000124D1CE000F0AAFF306820B1002401F08E
:1050B000AFFCA4B901E00124F9E700F0E5FCF068D9
:1050C000C468201D00F09CFCA868401EA8606868A9
:1050D000401E686000F014FD204600F052F8686839
:1050E0000028DFD170BD0000040C002088060020DD
:1050F00030B4026C0B46002A0BD0C1681144C16069
:105100004468A14201D30168C16030BC1846FBF776
:1051100050BA30BC70472DE9F041856B1746044604
:105120000026026C82B1C7B1E068FBF742FAE16881
:10513000206C091AE1602268914202D26168081A63
:10514000E060022F16D017E02068A8B9606801F06F
:10515000B9FB0646002060600EE0A068FBF729FA64
:10516000216CA0680844A0606168884204D320686C
:10517000A06001E005B16D1E6D1CA5633046BDE861
:10518000F08110B50446006B00F0ECFC2046BDE851
:10519000104000F0E7BC000010484FF4A041420767
:1051A00006D0C01D0D4920F00700411AC1F5A041ED
:1051B0000B4A00230144C2E900030839103A21F0E8
:1051C000070111604B600B600B1AC0E9001393607C
:1051D0004FF000405360D06070470000540C002036
:1051E000F4060020074E4FF08054074DFFF756FF9E
:1051F00030680128FAD92C60BFF34F8FBFF36F8F4F
:10520000F4E700004809002004ED00E02DE9F04734
:10521000DDE909840E461746824691009946089DAD
:10522000A522206BFBF70AFA6FF00301206B01EB5C
:105230008701084420F00707780705D040F22B3299
:1052400019A11EA0FBF7F0F800202218315C82F8AB
:105250003410315C11B1401C1028F6D3002684F8BC
:105260004360202D00D31F25E562C4E91356201D9D
:1052700000F0E3FB04F1180000F0DFFB2461C5F14E
:1052800020006462A061666584F858604A46514611
:10529000384600F003FB2060B8F1000F01D0C8F8D9
:1052A0000040BDE8F08700002E2E5C467265655216
:1052B000544F535C7461736B732E63004572726F4D
:1052C000723A25732C25640D0A00000030B511498F
:1052D00000E011460A688242FBD34B685C188442A6
:1052E00003D1406818444860084643681C1894423B
:1052F00009D1084C103C2468A24209D052681A44D3
:1053000042600A6812680260814200D0086030BDC5
:105310000460F9E7F406002070B5002441600B4DED
:105320000061914206D8D11A8269914206D2011DCC
:10533000286907E09A4203D2994201D3012403E08D
:10534000011DE86800F07CFB204670BDC40600200B
:1053500010B5044600F098FBA06B20B1002400F0CB
:10536000CFFB204610BD0124F9E700002DE9F341F1
:1053700000980F460026846C2CB940F6CE1216A178
:105380001AA0FBF751F8A06BE16B884205D340F6F9
:10539000CF1211A115A0FBF747F8A06BE16B884273
:1053A0000CD294F945503A4669462046FFF7B3FEC1
:1053B0000646681C05D06D1C84F845503046BDE893
:1053C000FC81606A0028F9D004F1240001F0D4FACD
:1053D0000028F3D00126F1E72E2E5C467265655257
:1053E000544F535C71756575652E63004572726F1D
:1053F000723A25732C25640D0A000000F8B50546A5
:1054000014480E46C068C068C468201D00F0F8FA51
:10541000E069012817D1A0692B4641193246204680
:10542000FFF77AFF78B100200346014600902A4634
:10543000204601F0D3FB30B907494FF4027201F165
:105440001800FAF7F1FF616A01B02046BDE8F040AC
:1054500008470000C4060020406B000870B586B005
:105460002F4E53E00198002806DADDE90301029A85
:1054700090470198002849DB039C606910B1201D0A
:1054800000F0BEFA05A800F0A7F8054601980A2822
:105490003CD2DFE800F00505053B273805053B2732
:1054A0000298A169034601442A462046FFF734FFCB
:1054B00000282BD0616A20468847E069012825D161
:1054C000002000900298A169002342181946204646
:1054D00001F084FBD0B940F2213212A117A0FAF7F3
:1054E000A3FF13E00298A06128B94FF44E720DA1FA
:1054F00012A0FAF799FFA0692B4641191A462046D7
:10550000FFF70AFF02E0204600F02CFB00231A46BA
:1055100001A9306800F094FE0028A3D106B070BD48
:10552000C40600202E2E5C4672656552544F535CB3
:1055300074696D6572732E63000000004572726FAE
:10554000723A25732C25640D0A000000F8B50D464B
:10555000064600F053FD684600F03EF80446009809
:1055600010B101F055FAF8BD1148ADB101690968F3
:10557000D9B10025311B2A46006800F0A9FB01F0D3
:1055800047FA0028EFD10B494FF080500860BFF375
:105590004F8FBFF36F8FF8BDA642EBD801F038FAFA
:1055A00021463046FFF72AFFF8BD0125E2E700005B
:1055B000C406002004ED00E00648416B096829B1EB
:1055C000416BC968C9684968816270474FF0FF3113
:1055D000FAE700008806002070B5054601F0F8F8EB
:1055E000064E0446B068844203D200F009F8012058
:1055F00000E0002028602046B46070BDC406002092
:10560000F8B5184E26E0C068C4680568201D00F093
:10561000F7F9616A20468847E06901281AD1A06934
:105620002844A84206D924616060211DF06800F07A
:1056300007FA0FE000200346014600902A46204664
:1056400001F0CCFA30B9084940F2923201F1180069
:10565000FAF7EAFEF06801680029D4D13169C6E999
:105660000310F8BDC4060020406B000808484068DD
:10567000401C05D040F20F1206A111A0FAF7D4FE8B
:10568000502080F31188BFF34F8FBFF36F8FFEE779
:10569000D80600202E2E5C4672656552544F535C2E
:1056A000706F727461626C655C525644535C415217
:1056B0004D5F434D34465C706F72742E6300000082
:1056C0004572726F723A25732C25640D0A00000032
:1056D000084CE068016839B1002139B10020FFF7BA
:1056E00035FFFFF7BBFEF4E70121F6E7C06800686D
:1056F000F5E70000C40600202DE9F041044600F063
:10570000C3F994F9455004F1240610E0A06C20B1CF
:1057100000212046FFF72AFE04E0606A48B13046C7
:1057200001F02AF908B100F05BFB6D1E6DB2002D8F
:10573000ECDC4FF0FF3684F8456000F0E1F900F052
:10574000A3F994F9445004F1100709E0206948B125
:10575000384601F011F908B100F042FB6D1E6DB240
:10576000002DF3DC84F84460BDE8F04100F0C8B9D6
:105770002DE9F0410546002600F040FC324F386824
:1057800008B9FFF709FDF86805424FD1002D4DD04B
:10579000083568070BD005F00700C0F10800054484
:1057A000680704D0BF2229A132A0FAF73DFE002DE0
:1057B0003CD07868854239D82349103108460468BE
:1057C00001E0214604466068A84202D22068002811
:1057D000F7D13868B846844228D00E68206808603F
:1057E00060680836401B10280ED96719780704D066
:1057F000EC2216A11FA0FAF717FE6068401B786024
:1058000038466560FFF762FD6168D8F804004246DB
:10581000401AC8F80400D8F80830984200D29060C6
:10582000D8F80C0001430020C4E9000101F0F0F8B1
:10583000700705D04FF4967204A10EA0FAF7F4FD9C
:105840003046BDE8F0810000E40600202E2E5C46C4
:1058500072656552544F535C706F727461626C650F
:105860005C4D656D4D616E675C686561705F342E7F
:10587000630000004572726F723A25732C25640D27
:105880000A0000000449086818B10868026D521C3B
:1058900002650868704700008806002010B5031FE5
:1058A0004FF080741C601B1F21F001011960191F4B
:1058B000044B0B6014390A60091F6FF00202443870
:1058C0000A6010BD6D5600081CB500F0DDF81448E4
:1058D0000224CDE900400023322212A1144800F036
:1058E0003DFF0F490320091DCDE9000100233222AD
:1058F00010A1134800F032FF094800230830CDE919
:10590000004080220FA1124800F028FF0448083808
:10591000406800F0FFF9BDE81C4000F0F1B800005D
:105920004C0600206C6564305F7461736B0000008E
:10593000794E00086C6564315F7461736B00000020
:10594000894E0008666C6F61745F7461736B000050
:10595000554E0008F0B50646012187B00846FDF710
:1059600071FB01211020FDF791FB234D0722092136
:105970002846FCF7A3F807220A212846FCF79EF8E0
:1059800002218DF814108DF815104FF4C06000241A
:1059900004908DF8164001278DF8177004A9284649
:1059A000FCF750F8ADF80440ADF80640ADF80840FB
:1059B000ADF80C400C20114CADF80A000096694679
:1059C0002046FFF79BF901212046FFF755F90122F8
:1059D00040F225512046FFF778F925208DF8180070
:1059E00003208DF819008DF81A008DF81B7006A899
:1059F000FCF736FD07B0F0BD00000240001001408A
:105A0000D0E9013201699A60D0E901235A604A68FD
:105A1000824201D182684A60002202610868401E09
:105A20000860704700F108014FF0FF32C0E9011231
:105A3000C160016100210160704700210161704770
:105A400030B50C68621C02D000F1080202E0026965
:105A500004E01A4653681D68A542FAD953684B60A2
:105A600099608A60516008610168491C016030BD1D
:105A700042684A6093688B609368596091600861DE
:105A80000168491C01607047502080F31188BFF302
:105A90004F8FBFF36F8F09494868401C4860012849
:105AA0000AD10748006810F0FF0F05D040F2B91284
:105AB00004A10FA0FAF7B8BC70470000D806002078
:105AC00004ED00E02E2E5C4672656552544F535C27
:105AD000706F727461626C655C525644535C4152E3
