:020000040800F2
:100000001067002039030008372900085923000829
:1000100035290008391200087D5000080000000052
:100020000000000000000000000000008102000845
:10003000E917000800000000D5020008DD4B0008A9
:100040005303000853030008530300085303000838
:100050005303000853030008851A0008111C000808
:1000600053030008A51C00085303000853030008AD
:100070005303000853030008530300085303000808
:1000800053030008530300085303000853030008F8
:1000900053030008530300085303000853030008E8
:1000A00053030008530300085303000853030008D8
:1000B0004D4C000853030008530300085303000885
:1000C00053030008530300085303000853030008B8
:1000D00053030008AD4E0008530300085303000803
:1000E0005303000853030008530300085303000898
:1000F0005303000853030008530300085303000888
:100100005303000853030008530300085303000877
:100110005303000853030008530300085303000867
:100120005303000853030008530300085303000857
:100130005303000853030008530300085303000847
:100140005303000853030008530300085303000837
:100150005303000853030008530300085303000827
:100160005303000853030008530300085303000817
:100170005303000853030008530300085303000807
:10018000530300085303000800F002F800F068F879
:100190000AA090E8000C82448344AAF10107DA45E2
:1001A00001D100F05DF8AFF2090EBAE80F0013F0CC
:1001B000010F18BFFB1A43F00103184738840000F1
:1001C000588400000A444FF0000C10F8013B13F073
:1001D000070408BF10F8014B1D1108BF10F8015BA0
:1001E000641E05D010F8016B641E01F8016BF9D193
:1001F00013F0080F1EBF10F8014BAD1C0C1B09D1EA
:100200006D1E58BF01F801CBFAD505E014F8016B5B
:1002100001F8016B6D1EF9D59142D6D370470000ED
:100220000023002400250026103A28BF78C1FBD8FF
:10023000520728BF30C148BF0B607047642900F0E7
:100240005D81732900F0FE82002070471FB507F022
:100250009EFB9DE8030000F03BFA1FBD10B510BDEA
:1002600000F089FB1146FFF7F1FF04F095FF00F065
:10027000A7FB03B4FFF7F2FF03BC04F000FF00008C
:100280002A4B19680868B0E8F04F80F30988BFF37B
:100290006F8F4FF0000080F311887047000000005E
:1002A00006480068006880F3088862B661B6BFF34C
:1002B0004F8FBFF36F8F00DF00BF00BF08ED00E07E
:1002C000DFF80C00016841F470010160704700BF65
:1002D00088ED00E0EFF30980BFF36F8F134B1A68CE
:1002E0001EF0100F08BF20ED108A20E9F04F1060BB
:1002F00008B44FF0500080F31188BFF34F8FBFF365
:100300006F8F06F071F84FF0000080F3118808BC81
:1003100019680868B0E8F04F1EF0100F08BFB0EC85
:10032000108A80F30988BFF36F8F70475C07002045
:10033000EFF30580704700000948804709480047EF
:10034000FEE7FEE7FEE7FEE7FEE7FEE7FEE7FEE785
:10035000FEE7FEE704480549054A064B70470000E2
:10036000F14B00088901000810610020106700208F
:100370001063002010630020704770B5064600F03F
:100380008BF9056806F10B0020F00704B4429CBF0E
:10039000002070BD2B466A68BAB11068A04210D325
:1003A00004F1080188423CBF5068586007D3516887
:1003B000101941601168091B016058601460101D1C
:1003C00070BD13465268002AE7D12146284600F046
:1003D0006BF90028DED170BD70B50446051F00F032
:1003E0005BF90068002C14BF446870BD002C18BF76
:1003F000AC423CBF20466468F8D301680A18AA42A0
:1004000018BF456003D12A68054611440160286879
:100410004119A1421CBF6C6070BD616869602168B0
:100420000844286070BD00000FB4044910B503AA49
:10043000029800F00BFA10BC5DF814FB480700208E
:100440002DE9F0410E460446002020622046E16876
:10045000884730B3252805D0D4E901219047206A88
:10046000401CF2E7E168204600278847050018D0C5
:10047000A5F14100192802D820354FF40067324613
:10048000294620462760FFF7D9FE40B1012804D055
:10049000F61D26F007060836D8E7361DD6E72846AB
:1004A000DAE7206ABDE8F08170B50C460546012AFE
:1004B00005D02878800600D5EA69002302E00123F0
:1004C00005E05B1C934202D2E05C0028F9D1A869E8
:1004D000E618C01AA861286A184428622846AFF3B3
:1004E000008004E0D5E9012114F8010B9047B442E3
:1004F000F8D32846AFF3008070BD00002DE9F0412D
:100500000646002410687529314616A510D0AFF3B1
:100510000080002802DA404213A507E031688A070C
:1005200001D512A502E0490704D511A5012401E077
:10053000AFF3008000210A2206F1240709E0B0FB96
:10054000F2FCB0FBF2F302FB1C003030785418468A
:10055000491C0028F3D123462A463046BDE8F04125
:1005600000F0ECB8000000002D0000002B0000009F
:100570002000000010B5431C02E010F8011B71B10F
:100580008107FAD14FF0013202C88C1A8C4314EA69
:10059000C211F9D0C01A0A0603D0C01E10BDC01A7D
:1005A00010BD0A0401D0801E10BD0902FCD0401EFF
:1005B00010BD032A40F2308010F0030C00F01580CB
:1005C00011F8013BBCF1020F624498BF11F801CB56
:1005D00000F8013B38BF11F8013BA2F1040298BFBB
:1005E00000F801CB38BF00F8013B11F0030300F025
:1005F0003F81083AC0F0088051F8043B083A51F8AE
:1006000004CBA0E80810F5E7121D5CBF51F8043BCD
:1006100040F8043BAFF30080D20724BF11F8013B40
:1006200011F801CB48BF11F8012B24BF00F8013BA2
:1006300000F801CB48BF00F8012B704702F0FF0320
:1006400043EA032242EA024200F002B84FF00002FD
:100650000429C0F0128010F0030C00F03D81CCF1B1
:10066000040CBCF1020F18BF00F8012BA8BF20F842
:10067000022BA1EB0C0100F02FB95FEAC17C24BF73
:1006800000F8012B00F8012B48BF00F8012B704740
:10069000704770477047704700487047B46000204B
:1006A000704770477047704738B504460A460020C7
:1006B0006946AFF30080002808BF38BD02460099A4
:1006C000204600F033F9012038BD012000F04CB97C
:1006D000F8B5AFF30080054600200C46102000BF9F
:1006E0000646A819A0420DD9324669460020AFF34C
:1006F0000080070008BF00F037F90098A04218BF3B
:100700000546C419FFF7C8FF05600746F01D20F035
:1007100007004619284600F00AF8B44208BFF8BDA1
:10072000A21B31463868BDE8F84000F0FFB8002150
:100730000160C0E901107047102070472DE9F047B3
:100740000D4699469246044600F124080168880641
:1007500004D5E06921F01001216000E00120A842E9
:1007600001DD471B00E00027A1697A1902EB0900AF
:10077000081AA0612078C00602D42046AFF300809A
:10078000002608E0D4E901211AF806009047206A03
:10079000401C761C20624E45F4DB2078C0060AD54A
:1007A0002046AFF3008006E0D4E9012130209047D5
:1007B000206A401C2062381EA7F10107F4DC07E024
:1007C000D4E9012118F805009047206A401C2062F6
:1007D000281EA5F10105F3DC2046AFF30080207848
:1007E000000602D50220BDE8F0870120FBE70000EB
:1007F00001694A1C02610878704700B58FB0CDE9E5
:1008000001310021059105497944CDE903101146D4
:100810006846FFF715FE0FB000BD0000E5FFFFFFC3
:1008200010B5436913B1AFF3008001E0FFF73CFE60
:10083000012010BD127800F124010A7000224A70D4
:100840000122EDE711684FF0FF32E9E7074B70B581
:100850000D467B44FFF7D1FF0446284600F080F8A0
:1008600010B14FF0FF3070BD204670BD2F49000021
:1008700010B5203AC0F00B80B1E81850203AA0E83B
:100880001850B1E81850A0E81850BFF4F5AF5FEA6F
:10089000027C24BFB1E81850A0E8185044BF18C922
:1008A00018C0BDE810405FEA827C24BF51F8043BC9
:1008B00040F8043B08BF7047D20728BF31F8023B1D
:1008C00048BF11F8012B28BF20F8023B48BF00F8B1
:1008D000012B70474FF0000200B513469446964630
:1008E000203922BFA0E80C50A0E80C50B1F1200143
:1008F000BFF4F7AF090728BFA0E80C5048BF0CC0F1
:100900005DF804EB890028BF40F8042B08BF70474E
:1009100048BF20F8022B11F0804F18BF00F8012BC0
:100920007047000000487047AC60002003464068F4
:100930008C46002818BF88423CBF03464068F8D365
:1009400018681844884207D00CF1030020F0070013
:10095000001D411A521A0146081D0A60FFF73CBDEE
:10096000007B00F08000704710B500F037F8BDE85C
:10097000104000F02EB87546FFF7D4FFAE460500D4
:100980006946534620F00700854618B020B5FFF7AA
:10099000E1FCBDE820404FF000064FF000074FF0AB
:1009A00000084FF0000B21F00701AC46ACE8C0098D
:1009B000ACE8C009ACE8C009ACE8C0098D46704796
:1009C00010B50446AFF300802046BDE81040FFF7A5
:1009D00050BC002801D004F052BB704710B501286C
:1009E00005D0002103A000F021F8012010BD09A1CD
:1009F000F8E7000053494752544D454D3A204F7592
:100A000074206F662068656170206D656D6F727906
:100A1000000000003A2048656170206D656D6F72BE
:100A20007920636F727275707465640070B50546E5
:100A30000C460A2000E06D1C04F022FB35B128783A
:100A40000028F8D102E0641C04F01AFB14B12078ED
:100A50000028F8D1BDE870400A2004F011BB000066
:100A60002DE9F05FD04E8A460024611E7182C106D6
:100A700000F00F054FF00109304686F80B90807B9F
:100A8000A34604D54FF0010B20F0100005E0C1068D
:100A900001D5012D70D100F00F00B073000605EBF9
:100AA0001050C0B20027804644281DD009DC12280F
:100AB00011D022280FD024280FD0B8F1420F20D116
:100AC00009E0482810D0822805D084280CD0B8F13D
:100AD000880F16D108E0022007E0B3492E31881EA6
:100AE00000F080FA040004D1707B00F02FFD0400B8
:100AF00007D0B07B02286ED004286DD008286CD1B6
:100B0000ECE077854046B8F1340F22D022DC222871
:100B100031D010DC14281CD007DC112874D0122826
:100B20003BD0B8F1130F70D131E0182811D0B8F1D3
:100B3000210F6AD1ABE028280BD005DC232808D090
:100B4000B8F1240F61D149E0312822D0B8F1320F39
:100B50005BD1BFE048285ED00FDC42287FD005DCA7
:100B600038286FD0B8F1410F4FD187E0432869D0C2
:100B7000B8F1440F49D195E0F2E0A8F181000828CE
:100B800043D2DFE800F07265A760A9A9A98F1324FA
:100B9000B9E0864813240770B5E004F055FA3078C0
:100BA00020B101F0DDFD040002D006E05124AAE0EE
:100BB000F77200F027FB040004D0FF2C6FD0F07A0E
:100BC00020B105E07A4981F800909CE000F020FB1C
:100BD00001F0FEFD97E089E084E073E003F00AFD98
:100BE000040006D17048F772383000F009FB0400A9
:100BF00004D0FF2C53D0F07A40B109E0308F03F0DD
:100C000065FC86F802907EE04AE065E000F0FEFABE
:100C100003F004FF77E003F0F1FE040004D1F77263
:100C200000F0F2FA040004D0FF2C38D0F07A18B1AA
:100C300004E086F8019066E000F0ECFA03F01CFF97
:100C400061E00CE046E000F0E5FA03F015FF0AE091
:100C500000F0E0FA044603F00FFFF77294BB00F0D7
:100C6000D5FA03F0DBFEF7724DE000F0D3FA04464C
:100C700003F002FFF7722CBB4FF0410800F0C6FAF8
:100C8000044603F0CBFEF772E4B94FF0210801F0FF
:100C90009FFD00F0BDFA0446444807702AE047E093
:100CA00042480770BBF1000F02D0404600F03EF909
:100CB000B07A68B9B07B10F00C0F09D0F08D10B18C
:100CC000022003E016E0B08D10B1032001F036F8E9
:100CD000FE2418E0112416E0122414E000F09AFA21
:100CE00003F0CAFE00F092FA03F098FE162C04D02E
:100CF0000220B073FF2C1BD005E001F069FD00F06D
:100D000087FA86F80E90B07B00F00F01A94247D019
:100D100054EA0A012BD02843000728D5707818B16F
:100D200000F078FA03F0A8FEF08DD8B102201CE0A4
:100D300086F80C904046A6F82A80B8F1120F07D02A
:100D4000132805D0242806D0482804D0C82004E061
:100D50004FF4FA6001E042F2283080B232387082FB
:100D6000BDE8F09FB08D10B1032000F03EFD4CB106
:100D7000B07B082801D10420B073C0B240F010004D
:100D8000B07306E0BAF1000002D0044645F0100549
:100D9000B5733773B07B2146BDE8F05F03F0B0BB9D
:100DA00037730021F8E700000C0800207C080020C1
:100DB000520800202DE9F0415A4F387B00287DD0A1
:100DC000788A002401260028788DA0461AD012289F
:100DD00054D0132852D0242877D048286ED1F87ADE
:100DE00000286BD0787900286AD0B7F9180000285D
:100DF00064DDB7F91A10884260DCA7F81880A7F8FC
:100E00001A8087E0C0F30715122806D0132804D0F3
:100E100024280DD0482847D114E0F87A08B900F00A
:100E2000F7F901F0D5FC09E03C8D3DE001243BE001
:100E3000F87A08B900F0EAF903F0F0FDB87A002872
:100E4000F4D0F1E7787970B1B87910B1F87810B1D1
:100E500005E02D2404E0F88D08B11B2400E01A24DD
:100E6000F87A30B107E0F88D0028F6D108257E70B9
:100E70001CE000F0CFF903F0FFFD15E0F87A002840
:100E80004DD087F80B8000F0BDF938B1FF2846D06F
:100E900000F0BEF9BDE8F04101F09ABC22480670AE
:100EA00097F82A0000F00F05002D38D087F80C8045
:100EB0000CB145F010052146284602E02FE004E081
:100EC00023E0BDE8F04103F01BBBF87A002826D0F0
:100ED000144887F80B80383000F092F938B1FF28B9
:100EE0001DD000F093F9BDE8F04103F097BDBE704E
:100EF0000425DBE77E700825D8E7FF280FD000F037
:100F000089F9BDE8F04103F0B7BDF88D10B1F8786C
:100F1000002804D000F078F90028EED1EAE7BDE817
:100F2000F08100000C0800205208002070470000EB
:100F3000234810B5018823484180234909888180CE
:100F400022490988C1802249098801812148224912
:100F500090ED000A1B481A3000F1380280ED010ABA
:100F600091ED000A1D4980ED020AA0F1100391EDF8
:100F7000000A1B4980ED030A91ED000A80ED040A86
:100F8000917858884C0861F3000064F341008C08A4
:100F900064F38200C90861F3C3005880C10701D01F
:100FA00091889980810701D5D188D980410701D5E1
:100FB00011891981000701D55089588110BD0000A1
:100FC000100700203E000020120700201407002018
:100FD0001607002000070020040700200807002053
:100FE0000C0700202DE9F35F4FF0000A54465546E8
:100FF0005746DFF8CCB01FE00BEB4400408801F00F
:101000000DFE060023D0B069B0F8009000200FE07C
:1010100000F1010808F0FF00314601F06CFDB169F4
:1010200001EBD000006857FA80F087B21FFA88F011
:101030004845EDD3641CA4B2BBF80010A142DBD834
:10104000FF1D4FEAD709BAF1000F04D02AE00027AC
:101050004FF0250AF4E7DFF868B000260BF1080B23
:101060001CE00BEB4600408801F0D8FD070023D0C0
:10107000B8690024B0F800800CE0641CE0B2394686
:1010800001F039FDB96901EBD000006855FA80F034
:1010900085B2A4B24445F0D3761CB6B2BBF80010BA
:1010A000B142DED80099ED1DE8080880019950464C
:1010B000A1F80090BDE8FC9F00254FF0240AF1E75D
:1010C0002A00002010B500223A4B6EE003EB4201EB
:1010D0004988A1F5D051062965D2DFE801F0031057
:1010E000203B644133490C314C8820F8024B8C88FA
:1010F00020F8024BCC8820F8044B098927E02D49C1
:1011000016314C8820F8024B8C8820F8024BCC8892
:1011100020F8044B0C8920F8024C49891DE0254930
:1011200026318C8820F8024BCC8820F8024B0C89A1
:1011300020F8044B4C8920F8024C8C8920F8084B8D
:10114000CC8920F8064C0C8A20F8044C498A20F8F7
:10115000021C28E01749091F498820F8021B22E0D9
:1011600014493A314C8804808C884480CC8884802F
:101170000C89C4804C8904818C894481CC89848108
:101180000C8AC4818C8A0482CC8A44820C8B84822F
:101190004C8BC4828C8B0483CC8B44830C8C8483D7
:1011A000498CC1832030521C92B2198891428DD84B
:1011B00010BD00003200002070B5104C00216FF40B
:1011C000B05504F16602238815E004EB41067688E9
:1011D000EE420ED130F8026B568030F8026B9680EA
:1011E00030F8046BD68030F8026C168130F8026B50
:1011F0005681491C89B28B42E7D870BD2A00002075
:101200000020704700207047002070470020704782
:10121000002070470020704730B5044600204FF68C
:10122000FF7505E0204600F009F8002803D12834B6
:101230002189A942F6D130BDFEE7000030B500B3E8
:10124000144A0024116849B10D8903899D4215D9BA
:101250000460116841600860106018E0106044602C
:10126000046014E007D90A68C0E900210A6802B1E5
:10127000506008600BE04A6832B111460A899A4210
:10128000F0D14FF0010030BD4860C0E900144FF0CC
:10129000000030BDAC01002030B5064D2C6803E0E5
:1012A0002089646800F0F0F8002CF9D10020286053
:1012B00030BD0000AC01002010B50D4C206828B1F5
:1012C000002101F0B7F9002020600CE04FF480709D
:1012D000FFF753F8040008D00E220649FFF769F91A
:1012E000204602F0E9FC002010BD072010BD0000E0
:1012F00008080020AC5D002001480068704700002D
:10130000AC010020024900200860024908807047B3
:1013100008080020DC0700202DE9F84F214F3E6827
:10132000002E3DD0DFF880A0204C214D9AF800001F
:101330000090DFF880B0DFF8808023689BF8001011
:10134000B8F800002A68B0470646FF2828D0DFF822
:101350006C90002799F8000001280DD0022804D0D5
:1013600003280CD004280FD109E01549086818B1EA
:10137000FFF732F8124807600022114601E02268A8
:101380002968304602F0C8FD89F80070A8F800709E
:101390008BF800702F60034827608AF800700760A0
:1013A000BDE8F88FEC070020D2070020E8070020F6
:1013B000E4070020D3070020DA070020D10700202F
:1013C000F0070020084900B50020086001F55370BF
:1013D000FFF722FF002805D103485DF804EB001D4C
:1013E000FFF71ABF00BD0000AC01002010B51A487D
:1013F0002023002403804480446044F21F02846060
:1014000082811649C0E904148483046280F8404054
:10141000134803804480446084608281C0E90414DE
:101420008483046280F840400E480470FFF7CAFFCE
:1014300008B1FFF731FF0C4804700C4804700C48E9
:1014400004800C4804700C4804600C4804600C488C
:1014500004600C48046010BD24600020A0860100D8
:10146000686000207C080020D1070020D2070020FF
:10147000DA070020D3070020E4070020E807002057
:10148000EC070020F00700200C4B196813E00A89D4
:1014900082420FD1D1E9002002B1506000B1026058
:1014A00000220A604A601A6809891289914200D1B3
:1014B0001860704749680029E9D17047AC010020E5
:1014C000C188090B09290CD2DFE801F00B090509D5
:1014D00009090909070002F087BA02F0EDBB0420F0
:1014E000704705207047000038B5174C608EC0B1BA
:1014F0000025ADF8005002224FF48861684600F0E4
:10150000DDFDBDF80000ADF80000C00709D1E08D99
:1015100038B1607820B11B210420FFF7A1FA38BD53
:10152000E57060790028FAD060780028F7D0A079BB
:1015300040B1E0790028F2D11A21BDE838400420FA
:10154000FFF78EBA2C21F8E70C0800202DE9F047B0
:101550005E4E05460024308E41F6FF71884202D26D
:101560001420BDE8F087002000F09AFD4288018831
:10157000D30774D1CB0772D18379DB0713D080886E
:10158000C0F38103012B0ED180070CD5222A0AD388
:101590004FF48078424506D81F03B94203D34FF475
:1015A0000059494501D316248EE0012000F078FD52
:1015B00041880288CB0752D1D30750D18379DB070A
:1015C000F1D0808810F00C0FEDD18007EBD52229E7
:1015D000E9D34145E7D8B8464245E4D34A45E2D28B
:1015E00000274FF0010A032D2DD986F809A003200A
:1015F00000F056FD014640880A88C3072FD1D30763
:101600002DD18B79DB0719D0D8B1B38D984218D181
:10161000BBB1442815D8888810F00C0F11D1B17BCC
:10162000022906D0F18E8A420BD180070BD5777242
:1016300009E0424505D34A45F7D302E0B18D08439E
:1016400001D01E2440E0022D3BD9022000F028FDED
:10165000014640880A88C30701D1D30701D017206B
:101660007FE78B79DB0720D010B3F38D98421FD131
:10167000F3B144281CD88888C0F38101012917D10F
:10168000B17B022907D0B18E8A4211D1410607D51C
:1016900086F804A005E042450AD34A45F6D307E0A0
:1016A000377180070DD577720BE0F18D084308D0B4
:1016B0001D2409E0284600F0F3FCC08830826D1C30
:1016C000EDB2707B8542F5D320464AE70C08002036
:1016D00070B51F4B41F6324603F144029C891D4B05
:1016E000751C92891B8802291DD003DC61B3012976
:1016F0002CD104E003291ED0222927D10DE0B042CD
:1017000002D10BB1A1071FD4A8421FD190071DD54C
:10171000E3B911480088B8B918E0A84216D190077B
:1017200014D58BB912E0B04201D161070CD4A842A4
:101730000CD1500706E0B04201D1210704D4A842E1
:1017400004D11007002801DA002070BD122070BDFE
:10175000246000203A0800203808002070B50620D8
:1017600001F0F5F81D4A507948B1D08B002358B1EB
:10177000918B814208D39371D07900B1D371BDE8C8
:101780007040062001F0F9B8918B814201D2491CCA
:10179000918301249471518C21B1108C8842EAD23A
:1017A000401C10840E480F4D018D2D89A94208D28E
:1017B000D471B2F918000028E1DD508B401C508331
:1017C000DDE7D1790029DAD0D37180F84040B2F951
:1017D00018000028D3DD5383D1E700000C08002057
:1017E0002460002070080020704738B54FF48071E5
:1017F000ADF8001040F6060101EBC00402222146BC
:10180000684600F0B3FC02222146684600F056FC10
:10181000BDF80000C005F6D538BD00000948406895
:1018200018B909494888401C48800848007830B1F8
:101830000749B1F90000002801DD401E0880FFF7CC
:101840008DBF0000246000206801002018080020DF
:101850001E080020F8B50025ADF800500222042132
:10186000684600F02BFCBDF800001E4CADF80000EF
:10187000000A607302220621684600F01FFCBDF8D2
:101880000000ADF8000040F6FF7101EB80202086DB
:1018900003F0DAFB002604E03046FFF7A6FF761CD3
:1018A000F6B2607B8642F7D300F03CFEE57225730A
:1018B000E5706570A57025716586A583E58325842F
:1018C00065846571A57225852587E585A585012037
:1018D000A073002102F014FE65852572BDE8F84072
:1018E000FFF710BD0C0800202DE9FC410026012067
:1018F000ADF80460ADF8000000F00CFF3C4F40F67E
:101900000E08387840B102224146684600F0D6FB06
:10191000BDF80000ADF8000000F080FC0446354D35
:10192000C00711D0287B78B902224FF4907101A82A
:1019300000F0C4FBBDF80400ADF8040024F011046D
:10194000C0B20021FFF78CF8E0060FD5287B78B9EC
:10195000A87BC1060ED420F0100101290AD024F082
:10196000100400F00F000021FFF77AF8287B08B17F
:10197000FFF720FA3878002838D0BDF80000C007FB
:1019800005D1A87B002100F00F00FFF769F8A00542
:1019900009D56E8718480222018816483A3000F0AF
:1019A000E5FB00F0F7FDBDF80000144C800720783F
:1019B00001D508B114E098B100F01CFE2078002891
:1019C000BDF8000002D040F4007001E020F4007087
:1019D00080B2ADF8000002224146684600F0C6FB26
:1019E00000F01CFCC00501D500F0D8FCBDE8FC816E
:1019F000520800200C0800205E0800205308002038
:101A000000F052FF142004F03DFBF9E730B585B03B
:101A10000121042001F022FF0121880301F04EFF83
:101A200000248DF80C408DF80F4002208DF80D0039
:101A3000012502A91248029500F0D0FA00210220E7
:101A400002F058FB8DF804400C208DF8050000953D
:101A50008DF80650684600F039F94FF4A06000F0A8
:101A6000C9FF06208DF810008DF811408DF8124046
:101A70008DF8135004A800F08BFF05B030BD0000B6
:101A80000008024070B52DED028B01F0C3FC384D0B
:101A90009FED388B00246868401C6860642814DD62
:101AA0000021084604F08EF800EE100AB8EE400A55
:101AB00010EE100A05F0FAFE53EC182B05F09EFB11
:101AC00005F0C2FA2D4908606C60A868401CA86047
:101AD000642816DD0021012004F074F800EE100ADD
:101AE000B8EE400A10EE100A05F0E0FE9FED241B50
:101AF00053EC112B05F082FB05F0A6FA2249086091
:101B0000AC60E868401CE860642814DD0021022015
:101B100004F058F800EE100AB8EE400A10EE100A71
:101B200005F0C4FE53EC182B05F068FB05F08CFAA9
:101B300016490860EC602869401C286164280FDDA4
:101B40000021032004F03EF800EE100ADFED100A39
:101B50001048B8EE400A80EE201A80ED001A2C6181
:101B60000120BDEC028BBDE8704000F0A9B8000078
:101B70002C070020CDCCCCCCCC6C644000070020DE
:101B800033333333337364400407002008070020E5
:101B9000000025430C07002030B585B0012104204A
:101BA00001F05CFE0121880301F088FE00248DF81D
:101BB0000C408DF80F4002208DF80D00082502A979
:101BC0001248029500F00AFA0321022002F092FA6C
:101BD0008DF804400C208DF80500012400958DF847
:101BE0000640684600F072F84FF4A06000F002FF73
:101BF00009208DF810008DF811408DF812408DF8F5
:101C0000134004A800F0C4FE05B030BD0008024037
:101C100010B5062000F090FE02F0B6FF022000F0A2
:101C20004FF8BDE81040062000F09CBE30B585B0EE
:101C30000121042001F012FE0121880301F03EFE83
:101C400000258DF80C5002248DF80F508DF80D40B2
:101C500002A91348029400F0C1F90121022002F008
:101C600049FA8DF804500C208DF8050001250094E8
:101C70008DF80650684600F029F84FF4A06000F097
:101C8000B9FE07208DF810008DF811508DF8124024
:101C90008DF8135004A800F07BFE05B030BD0000A5
:101CA0000008024010B5062000F046FE02F0ECFEEF
:101CB000082000F005F8BDE81040062000F052BEF4
:101CC0000149086070470000143C014030B51A4AD1
:101CD0008379016853B313688B431360111D0B683C
:101CE0000468A3430B60017911440B680468234323
:101CF0000B60114B083319680468A14319601C1D5F
:101D000021680568A94321604179102905D0114453
:101D10000A68006802430A6030BD1968026811430E
:101D20001960216800680143216030BD00791044CA
:101D300002688A43026030BD003C014038B5002192
:101D4000ADF8001040F6060101EBC0040222214666
:101D5000684600F00BFA02222146684600F0AEF910
:101D6000BDF80000C005F6D438BD0000F0B599B04C
:101D700001215A2001F072FD0121084601F07AFD8F
:101D8000584E0C220021304600F064F90C2201214B
:101D9000304600F05FF90C220421304600F05AF979
:101DA0000C220521304600F055F90C22082130465E
:101DB00000F050F90C220921304600F04BF90C22BA
:101DC0000A21304600F046F90C220E21304600F080
:101DD00041F90C220F21304600F03CF94CF23370EF
:101DE00002250F908DF8405003208DF8410000240B
:101DF0008DF842408DF843400FA9304600F0EEF8D0
:101E0000394E0C220721304600F024F90C2208211B
:101E1000304600F01FF90C220921304600F01AF973
:101E20000C220A21304600F015F90C220B21304615
:101E300000F010F90C221146304600F00BF90C228C
:101E40000D21304600F006F90C220E21304600F03C
:101E500001F90C220F21304600F0FCF84FF680719A
:101E60000F910FA9304600F0B9F8204E0C2207213F
:101E7000304600F0EFF880210F910FA9304600F0B6
:101E8000ADF81B4F0C221146384600F0E3F8EE0285
:101E90000FA938460F9600F0A1F80F20CDE91404E1
:101EA0001190129013900620CDE900051694082099
:101EB000029017941020CDE90304CDE9084611A83B
:101EC0000794CDE90C40059406940E900A940B9467
:101ED000684600F01FF80121062000F00BF819B049
:101EE000F0BD0000000C024000100240000402405F
:101EF000001802408000A0F1C0400029016802D013
:101F000041F0010101E0024A114001607047000008
:101F1000FEFF0F0010B5D0E901121143D0E90323F1
:101F20001A4311434269114382691143C269114343
:101F3000026A1143426A1143826A1143C26A114321
:101F4000026B114302689200A2F1C04211608168E5
:101F5000082907D101688900A1F1C0410A6842F04F
:101F600040020A60416BD1E9002342EA03128B6808
:101F70008C891B0243EA04431A430B8A42EA035248
:101F80000B7D896942EA03620A4301688900A1F175
:101F9000C0414A60C16AB1F5804F08D000686FF057
:101FA00070418000A0F1C040C0F8041110BD816BE9
:101FB000D1E9002342EA03128B680C8A1B0243EA30
:101FC00004531A430B7D896942EA036200680A439D
:101FD0008000A0F1C040C0F8042110BDF0B500227F
:101FE00001274FF0030C0B6807FA02F52B40AB42B8
:101FF0002CD1066853000CFA03F4A64306600E7950
:10200000D0F800E09E4046EA0E0606600E79012EEA
:1020100001D0022E12D18668A64386604E79D0F890
:1020200008E09E4046EA0E0686604668AE4346607B
:1020300045688E799640B6B235434560C568A5437C
:10204000C560CC799C40C3681C43C460521C102AF4
:10205000C9D3F0BD4B07DB0E9A40C90810B500EBA1
:102060008100016A0F249C40A1430162016A11436F
:10207000016210BD018370470188428891420BD0F4
:1020800000EB8102491C926889B2018083889942E1
:1020900003D10021018000E00022104670470000BB
:1020A0004FF4006110B501EBC0010822024800F0B6
:1020B00005F8014810BD0000480800202DE9F04156
:1020C00015460E4607464FF4805820E0464501D39A
:1020D0002C4610E0042D01D9042400E02C46F00722
:1020E00003D1B00705D5E00701D0012403E00224A5
:1020F00001E0032CF9D072B622463146384601F091
:102100002DFA62B6281B85B23019274486B2002DFD
:10211000DCD1BDE8F0812DE9F04115460E460746B9
:102120004FF480581EE0464501D32C4610E0042DA4
:1021300001D9042400E02C46F00703D1B00705D5EF
:10214000E00701D0012403E0022401E0032CF9D0D0
:1021500022463146384601F001FA281B85B2301973
:10216000274486B2002DDED1BDE8F0812DE9F04193
:1021700015460E4607464FF4805820E0464501D3E9
:102180002C4610E0042D01D9042400E02C46F00771
:1021900003D1B00705D5E00701D0012403E00224F4
:1021A00001E0032CF9D072B622463146384601F0E0
:1021B00039FB62B6281B85B23019274486B2002D40
:1021C000DCD1BDE8F0812DE9F04115460E46074609
:1021D0004FF480581EE0464501D32C4610E0042DF4
:1021E00001D9042400E02C46F00703D1B00705D53F
:1021F000E00701D0012403E0022401E0032CF9D020
:1022000022463146384601F00DFB281B85B23019B5
:10221000274486B2002DDED1BDE8F08110B572B63C
:1022200002224FF408710348FFF775FF62B60148B8
:10223000008810BD2C07002010B502224FF4087151
:102240000248FFF768FF0148008810BD2C070020F6
:10225000F8B5FFF78BFD002593244FF40176ADF818
:102260000040042231466846FFF780FFADF8005079
:10227000042231466846FFF721FFBDF8000093288D
:10228000EDD140F20111542001F01FFA01215C2030
:1022900001F01BFA582001F069F9ADF80050042252
:1022A00031466846FFF762FFFFF7B0FB062000F0FB
:1022B00059FBFFF771FCFFF7B9FC092000F052FB56
:1022C000072000F04FFB0A2002F0D9FC1C2000F090
:1022D00049FB62B60020F8BD70B5194800780028A7
:1022E00023D11848007800281FD0174B0021174C25
:1022F0009D8B17484FF08042012D17D04578012D56
:1023000013D1526A456843F60956521B114D6A4370
:102310004FF4FA6592FBF5F54288724305EB8212A1
:102320005A60626041804160417070BD596099831C
:102330006160A183418001214170516A416070BD9B
:10234000110800201408002024600020686000208C
:102350006801002040420F00FEE700007CB501212B
:10236000402001F07BFA01208DF8040000228DF856
:10237000062003218DF80510074D4FF480748DF869
:102380000700009469462846FFF728FE21462846A4
:10239000FFF770FE7CBD0000001802402DE9FC41F3
:1023A000314D02226846A989FFF788FEBDF800007A
:1023B000ADF80000E87901260027012817D10A208E
:1023C000FDF7DBFF040012D027606760278104203F
:1023D0002080A088002120F47060A080E680072083
:1023E0002081204600F026F92046FDF7F5FFBDF8D4
:1023F0000000801D81B2ADF800106878AA79104302
:1024000002D02E70BDE8FC812F706889814201D90D
:10241000ADF80000FDF7B1FF28610028F1D0BDF84C
:102420000020A989FFF74AFEADF80470022240F6A9
:10243000040101A8FFF742FEBDF80400ADF8040056
:10244000BDF8040000050AD508480780A8896989F5
:1024500002220844801E81B20448FFF72FFE28693B
:1024600000F024F9CEE700005008002046080020C4
:102470002DE9F84305462748007800F00F000128B1
:1024800007D0254EB07820B1707820B10720BDE884
:10249000F883F020FBE72C88F18904F106081FFA85
:1024A00088F22846FFF762FE0027ADF8007002228E
:1024B00040F60C016846FFF701FEBDF80000ADF8DC
:1024C0000000BDF80000000518D4307A1349001B45
:1024D000801FC0B20F80022807D228F00101C0F18E
:1024E000020229440D48FEF764F8F089318902227E
:1024F0000844801E81B20948FFF738FE706908B1B0
:10250000376101E00648306101207561707000207C
:10251000BDE700001A0800205008002046080020EF
:10252000BC5E0020F8B5194D2220002468814FF4CC
:10253000807028810001A881E88115480A2140F6B1
:102540000E06048044808180343802220480448056
:1025500081802C61AC616C61EC61EC70ADF8004085
:1025600031466846FFF7AAFDBDF80000022220F4BC
:102570000070ADF8000031466846FFF7F7FDAC701B
:102580006C702C70AC712C716C71F8BD500800200F
:10259000F05F002070B5154C00256570A06920B172
:1025A000E16911B9FDF718FFA5616069A061E069F3
:1025B00018B1FFF75DFFE56105E00D48FFF75CFD31
:1025C00008B1FFF755FFA07900280DD081070BD582
:1025D00020F00200A0712069FEF76EFE002803D0F3
:1025E000A07940F00200A07170BD000050080020EA
:1025F000BC5F002070B50E4DAC698CB168780026C8
:1026000050B1E86940B90120FFF7EFF86869E86167
:102610000120FFF793FB6E702046FFF729FFAE61A4
:10262000E87810B10020E87070BD0120FBE70000E1
:10263000500800202DE9F0410546194800270C46B6
:10264000007800F00F00012808D0A888154E20F46B
:102650007040A8807179490703D004E0F020BDE8FC
:10266000F08101217171717940EA0130A88028461A
:10267000FFF7FEFE40B10C49284601F0DBF80700E9
:1026800002D044F0800402E07079401C7071200692
:1026900004D5B17904F07F000843B0713846DEE715
:1026A0001A08002050080020BC5F002070B50446C6
:1026B00081882288080B04250126B2F5807F06D97F
:1026C000258021F47060A080E680082011E00F4989
:1026D00010B10A79904213D008710D49204601F0DB
:1026E000A9F8002811D02580A18821F47061A1806B
:1026F000E68020812046BDE870400021FFF79ABFA8
:102700002046BDE87040FDF767BE70BD5008002050
:10271000F05F002070B5042501260F48FFF7ACFCE0
:1027200004000FD000F0A6F850B12580A18821F454
:102730007061A180E680208100212046FFF77AFFAA
:10274000002CEAD105480078002803D0BDE870408D
:10275000FFF724BE70BD0000F05F0020500800208D
:1027600070B500242046FFF79BFC184D4188698115
:102770000088A8810120FFF793FC42882A81008805
:10278000E881A9896B890B44834204D910448842AB
:1027900001D9162070BD0020FFF7D0FA0120FFF705
:1027A000CDFA6889FDF7E9FD286110B10021E971D2
:1027B00007E00120E8710A20FDF7DFFD286100B97C
:1027C0000224FDF709FE204670BD000050080020DD
:1027D000F8B5264D00242046AC70FFF706F801201E
:1027E000FFF703F8A86908B1FDF7F6FDE86920B125
:1027F000A969884201D0FDF7EFFD686938B1A96980
:10280000884204D0E969884201D0FDF7E5FDAC615A
:102810006C61EC61EC7040F60E06ADF800400222EF
:1028200031466846FFF74AFCBDF80000022220F45A
:102830000070ADF8000031466846FFF797FC6C70F9
:102840002C70AC712C716C710948FFF715FC08B144
:10285000FDF7C2FD06483438FFF70EFC002803D010
:10286000BDE8F840FDF7B8BDF8BD000050080020F5
:10287000F05F00208188C1F30321032901D00220E9
:102880007047FEF71DBE000010B5FEF7E3FFFEF730
:10289000ADFD0449002001224880486048700A705C
:1028A00010BD00006801002070B51B4800780028AA
:1028B00031D01A481A4C007808B1217819BB19494F
:1028C000097801BB012580B9FFF7A8FC410506D5B1
:1028D00015482570007840B100F02CFE05E0134942
:1028E000098811B9000500D525704FF0E025402476
:1028F000C5F88041FEF71CFB0D48007808B100F0D8
:1029000005FEC5F80041FEF7EFFFFEF705FDBDE847
:102910007040FEF7E9BD70BD68010020140800207A
:102920000F080020110800200D0800203A080020A0
:102930000E080020FEE7704700F01F0201219140C1
:102940004009800000F1E020C0F88011704700F0DD
:102950001F02012191404009800000F1E020C0F8F1
:102960008011704700F01F02012191404009800052
:1029700000F1E020C0F80011704700F01F020121B3
:1029800091404009800000F1E020C0F8001170473C
:1029900030B50F23C27801780125FAB1144A1268C4
:1029A00001F1E02102F4E062C2F5E062C2F3072225
:1029B000C2F10404D3404278A24084781C401443FE
:1029C000220181F80024007800F01F018D404009A9
:1029D000800000F1E020C0F8005130BD01F01F0080
:1029E00085404809800000F1E020C0F8805130BDEA
:1029F0000CED00E0024908430249086070470000FE
:102A00000000FA050CED00E06422B1FBF2F310B512
:102A1000047823440370B1FBF2F302FB13110A2282
:102A2000B1FBF2F3447823444370B1FBF2F302FBB1
:102A300013113031817010BD2DE9FF419089556926
:102A400098460F004FF00006C0F3032004D007287B
:102A500002D009280AD026E02846FDF78BFD86B271
:102A6000B8F1000032D0324629462DE001240DE0B5
:102A7000BC4209D12846FDF77DFD86B2B8F10000C1
:102A800011D0002EEFD10EE0641CA4B22846FDF751
:102A900071FD05446D1CBC4204D82878FF2801D084
:102AA000FE28E5D196B90C26B8F1000F0ED00D2204
:102AB00008496846FDF77DFD39460DF10900FFF72D
:102AC000A3FF0D2269464046FDF773FD04B0304672
:102AD000BDE8F0817D08002082890069C2F30322ED
:102AE000082A04D001EB410100EB410070470029A6
:102AF000FCD0801D7047F0B58A8905004FF00000BA
:102B0000C2F3032700D01020072F03D001234FF476
:102B1000187C31E00020F0BD082F13D00A6903EBC8
:102B2000430402EB440422881F2A28D00DDCA2F1C2
:102B30000306092E19D2DFE806F0223118223131BE
:102B4000181822000C69A41DEDE7624517D006DCB9
:102B5000202A23D02E2A12D02F2A06D11EE0A2F539
:102B60000076623E1AD0012E18D0AB4202D26288A3
:102B7000104480B25B1C9BB2AB42CDD9F0BD4FF686
:102B8000F0760F303040AB42F4D20B2A01D06245D0
:102B900002D16288104480B21030EAE74FF6E07646
:102BA0001F303040AB42E5D2A2F50076623EDED067
:102BB000A2F50076633EDAD02030DAE72DE9F0475F
:102BC0008146202101FA09F11FFA81F8FEF794FBF2
:102BD000044600261BE02089B0F5805F16D35FEA2B
:102BE000090511D0277B00230BE0D9B22046FFF75F
:102BF00073FF808810EA080F00D000255B1C9BB291
:102C000015B1BB42F1D901E0761CB6B26468002C64
:102C1000E1D13046BDE8F0870A30704710B5044670
:102C2000FEF76AFB03E00189A14202D04068002858
:102C3000F9D110BDF0B59489C4F30320E5B20024A6
:102C4000022603B3072803D0082803D0012012E08E
:102C50000020F0BD90691269007812894243D21DAC
:102C6000D0080CE000EB4007136906EB4707401C57
:102C7000DB5BC0B21C44A842F4D9E41DE008002983
:102C8000E7D1801CF0BD07280BD069B10828106976
:102C90000CD001EB410106EB4101405AC01DC008B8
:102CA000F0BD10694088F9E70120F0BD0089F5E723
:102CB0002DE9F05F8B468246202101FA0AF1BBF82C
:102CC00000000A9D1F4616461FFA81F9B0F5805F85
:102CD00002D01C48046827E0FEF70EFB040024D154
:102CE0003DB31B20287024E02089B0F5805F1AD303
:102CF0005FEA0A0312D094F80C8000250BE0294605
:102D00002046FFF7E9FE808810EA090F00D0002373
:102D10006D1CEDB213B14545F1D904E02089B61E12
:102D200027F8020BB6B264681CB1012EDCD82189E9
:102D300001E04FF6FF710348ABF800100460304625
:102D4000BDE8F09F040800202DE9FF4F85B0988969
:102D50008846DDE91249C0F303219A46174600F080
:102D6000FF0B46464FF48053CDF80C8001910729A4
:102D700006D00598984203D3DAF8180090F800B00E
:102D80005FEA090007D007297DD0059898427AD3D9
:102D9000CDF80CB01AE0D84503D9112009B0BDE830
:102DA000F08F31465046FFF797FE808870B1B949E1
:102DB00000F00702097801F00F01B1EB420F05D9CD
:102DC000400701D01A20E9E70620E7E7DAF81C50AF
:102DD0003DB1CDF8009023463A4641460598A847B4
:102DE000DCE70598B0F5805F3AD2B8F1000F37D034
:102DF00050464146DAF81830FFF76EFE4088C01D95
:102E0000C20803EB880050F8041CC8071DD000233B
:102E1000C1F34E0040000AE030F8021B090A21808D
:102E200005785B1C41EA052124F8021B9BB2B3EB39
:102E3000520FF1D3D10707D0218801F47F412180BF
:102E4000008841EA102020801DE131F8020B20802B
:102E500031F8020B6080201D121FFDF7AAFB12E162
:102E600000200290009008E1DAF81850002346B1E3
:102E70000598B0F5805F04D3F0B25146FFF73BFEF2
:102E80000346180900E0C4E005EB4007F1B25046E4
:102E9000FFF722FE05467F48007800F00F012879F1
:102EA00000F00700B1EB400F6FD8464504D0B9F1F0
:102EB000000F07D0464505D32EB90198072802D048
:102EC00024F802BBD7E02888B0F5E06F0DD36988FD
:102ED000082902D82F3188B207E0102902D0202912
:102EE00002D002E0062000E007201F2873D013DC88
:102EF0001F286FD2DFE800F03A4A4A6F734A6F73B7
:102F0000738B8B8BA1A1A1A1A17CA1A1A17CA1A16B
:102F1000A1A1A17CA1A14A00342837D012DC30281D
:102F200034D008DC20285AD02D282FD02E2852D07B
:102F30002F284FD153E0312828D0322826D03328EB
:102F40007BD123E0B0F5187F61D006DC35281DD099
:102F500036281BD0372870D118E0A0F500706138F2
:102F600055D0012853D0022867D150E0B9F1000FA5
:102F700063D06888010703D0C118090700D1A41CD9
:102F8000C0F3031004EB400454E058E06888424961
:102F900003F00F0C31F8100000FA0CF082B2388800
:102FA000190700D1218021882180B9F1000F00EAA2
:102FB000020002D00143218003E020FA0CF0084314
:102FC000208020882080A8781844000732D1A41CD3
:102FD00030E000E031E018071BD1388805E0180721
:102FE00017D1388824F8020B788824F8020B21E0E6
:102FF00018070ED1388824F8020B788824F8020BC1
:10300000B88824F8040BF88824F8020C12E018079A
:1030100001D00520C2E668883946C01DC208204696
:10302000FDF7C7FA6888010904EB4104000701D0E5
:1030300020782080012002901DE01820AEE60020BC
:10304000190700D1218069880A0704D019440907AB
:1030500001D124F8021F002103E0401C24F8021FC4
:10306000C0B2AA78C2F303128242F6D82879400788
:103070000BD01A200090761CB6B2039886427FF6D9
:10308000F3AE029818B1002088E60620F2E7009817
:1030900084E600001A080020D48500082DE9FF4FBF
:1030A00087B083460A98894617468189DDE9144A24
:1030B000C1F303220020C9B205910DF108080146B1
:1030C0004E4688E84600ABF5D053A3F50471ABF546
:1030D000B0550191072A0ED00A988069007810F047
:1030E000FF0008D11F2905D94FF400718D4201D38B
:1030F0008B4200D205985FEA0A0108D0072A72D0F5
:103100005FEA090101D107B1207804901AE08145F6
:1031100003D911200BB0BDE8F08F49460A98FFF79C
:10312000DBFC80880E2101EA9002B749097801F0A2
:103130000F018A4206D210F0380F01D01A20E9E7B9
:103140000720E7E7B9F1000F10D001981F2805D933
:103150004FF40070854201D3834207D20A988069F8
:10316000007810F0FF0F01D0012002900A98056A44
:103170003DB123463A4649465846CDF800A0A847F7
:10318000C8E707204FF000080090002F78D030E10A
:103190000A98F1B28569FFF79FFC0746F0B20A99D9
:1031A000FFF7A9FC0146BA880E2000EA9202964871
:1031B000007800F00F00824279D316B1080905EBC0
:1031C00040054E4504D0BAF1000F71D04E456FD383
:1031D00066B90398072809D02088059AC1B28A42A7
:1031E00002D2132096E7DFE0288082E03888B0F52D
:1031F000E06F0DD37A88082A02D82F3290B207E008
:10320000102A02D0202A02D002E0062000E0072087
:103210001F2872D013DC1F286ED2DFE800F03B4A73
:103220004A6E9F4A6E9F9FC3C3C3D6D6D6D6D6B426
:10323000D6D6D6B4D6D6D6D6D6B4D6D64A00342824
:1032400037D012DC302834D008DC202805D02D28D7
:103250002FD02E2851D02F284ED17FE0312828D0D2
:10326000322826D0332847D123E0B0F5187F10D07C
:1032700007DC35281DD036281BD037283CD118E074
:10328000BEE0A0F50070613803D0012801D002280B
:1032900032D187E0BAF1000F2ED07888020703D030
:1032A0000144090700D1A41CC0F303107EE08EE0A6
:1032B0009DE07A88554801F00F0C30F8122002FA90
:1032C0000CF083B228889843BAF1000F03D022880B
:1032D0001A40024308E0238833EA020823D113404E
:1032E00003FA0CF303439AB22A80B8780844000723
:1032F0005ED1A41C5CE000E067E0080754D1278899
:10330000029810B12888B84234D101981F280CD8EF
:10331000A7F5B0504FF40071884206D3A7F5D050FE
:10332000884202D30FB11220F4E6ABF5E0513239F6
:1033300003D0ABF5E05133390ED1012E0CD12888E2
:10334000B84206D039465846FEF7C2F90090002828
:10335000EAD12F49012008702F80CAE7080723D13E
:10336000029848B128882188884203D168886188FA
:10337000884201D01C20CDE634F8020B288034F8B6
:10338000020B688014E008070ED134F8020B288085
:1033900034F8020B688034F8040BA88034F8020C6F
:1033A000E88005E0080706D00520B3E604EB4004FA
:1033B0004FF001081BE078882146C01DC20828464E
:1033C000FDF7F7F878880009F0E71820A2E636B193
:1033D0007888020706D00144090702D002E0A41C45
:1033E00003E0A41C000904EB400418200090761CA4
:1033F000B6B2049886427FF6CBAEB8F1000F01D08A
:10340000002087E6009885E61A080020D485000889
:103410007C0800202DE9F0413048007800285BD07E
:10342000FEF70AFF04462E4F2E4D2F4E400525D5A0
:103430002E48007828B12E48007810B12D49002080
:103440000880308D08B1401E3085FEF745FF2A49BF
:10345000012008702948007810B100F06BF80DE0E9
:10346000022239882648FEF756FE3888298802222B
:103470000844801E81B22248FEF74DFE200503D588
:10348000288808B9FEF728FF7088012801D1FDF7C8
:103490004FFD1C481C4C007830B16088012801D0D9
:1034A000222801D100F032F8FEF7C6FE400513D500
:1034B000708D0222401C7085608539881048FEF7A7
:1034C0002AFE38882988BDE8F0410844801E81B270
:1034D00002220B48FEF71FBEBDE8F0811408002051
:1034E000400800203A080020246000201208002034
:1034F00011080020200800200F0800200D080020DF
:10350000460800200E0800206860002010B506481C
:10351000FDF7D8FD0548028805480188BDE8104040
:103520000148FEF750BE0000D008002038080020F7
:1035300042080020064810B502880648018806485F
:10354000FEF7E9FDBDE810400348FDF735BE000079
:103550003A080020400800208C080020B1F5805F68
:1035600001D300F011B8D2B200F083B80146891C33
:103570004FF0D84289B201F1D841125A098862F35A
:103580000F0061F31F4070472DE9F8430B4680465A
:103590004FF080414FF443741546002720460091B8
:1035A00000F093F82046FFF7E1FF00909DF803003C
:1035B0000006F7D4ADF80030ADF802504FF4427079
:1035C000009900F082F81420FFF7D0FF4FF000417F
:1035D0002046009100F079F8A1462046FFF7C6FF8B
:1035E00000909DF80000C007F6D09DF8010000F0A3
:1035F0001F040420FFF7BAFF0090641E03F00300CD
:10360000C0F10401E4B2A94200DD2946CEB20DEBBF
:10361000000108EB07003246FCF7CBFFA81B85B280
:10362000B819C6B21FE00420FFF7A0FF0090042DD8
:1036300001D9042000E02846C7B208EB06003A464C
:103640006946FCF7B6FFF019C6B2E81B641E85B2E6
:1036500014F0FF0407D14846FFF788FF00909DF85B
:10366000010000F01F04002D01D0002CDBD1BDE8CB
:10367000F88338B50346002000908DF80010080A42
:103680008DF801008DF80220C0208DF803004FF462
:10369000417415462046009900F017F82046FFF7C0
:1036A00065FF00909DF803000006F7D44FF44070CA
:1036B000FFF75CFF00216C46009003E0605C58540B
:1036C000491CC9B2A942F9D338BD4FF0D8421152B2
:1036D000801C80B200F1D840090C018070472DE9B0
:1036E000F84F0B4680464FF000094FF080414FF4F1
:1036F000457514464F4628460091FFF7E6FF2846D9
:10370000FFF734FF00909DF803000006F7D4ADF8F2
:103710000030ADF802404FF444700099FFF7D5FF38
:103720004FF0004128460091FFF7CFFFAA462846F8
:10373000FFF71CFF00909DF80000C007F6D09DF831
:10374000010000F01F0503F00300C0F10401A142D5
:1037500000DD2146CEB208EB070168443246CDF8C1
:103760000090FCF726FF20200099FFF7AEFF6D1EAA
:10377000A01B84B2B819EDB2C6B221E0042C01D965
:10378000042000E02046C7B208EB06013A4668462E
:10379000CDF80090FCF70DFF20200099FFF795FF72
:1037A000F019C6B2E01B6D1E84B215F0FF0509D1F9
:1037B0005046FFF7DBFE00909DF8010000F01F056A
:1037C000002D01D0002CD9D1BDE8F88F38B50D46B9
:1037D00000210B4600911446694603E0C25CCA54BE
:1037E0005B1CDBB2A342F9D34FF440700099FFF7A2
:1037F0006CFF8DF80050280A8DF801008DF802400A
:1038000080208DF803004FF4417318460099FFF7AC
:103810005CFF1846FFF7AAFE00909DF80300000623
:10382000F7D438BDB1F5805F01D3FFF758BFD2B2EE
:10383000FFF7CCBF10B54B888C885A1C92B29442CB
:1038400000D100220C88944201D1072010BD01EB69
:10385000830398604A80002010BD0000044A0029BC
:10386000116801D0014300E08143116070470000FE
:1038700030380240044A0029116801D0014300E0B9
:10388000814311607047000038380240044A002923
:10389000116801D0014300E08143116070470000CE
:1038A00040380240044A0029116801D0014300E079
:1038B000814311607047000020380240044A00290B
:1038C000116801D0014300E081431160704700009E
:1038D00044380240044A0029116801D0014300E045
:1038E00081431160704700002438024070B5204BBE
:1038F0001968204C11F00C0104D06610042903D083
:10390000082903D004601BE0066019E0184A121F62
:103910001168C1F38055116801F03F0115B1B6FB84
:10392000F1F101E0B4FBF1F114681268C4F38814FA
:103930006143C2F30142521C5200B1FBF2F101603B
:1039400019680F2202EA11110B4A545C0168E14028
:1039500041601C68072505EA9424145D21FA04F4EB
:1039600084601B6805EA5333D25CD140C16070BDEE
:10397000083802400024F4004C07002010B5184617
:10398000029B0BB1052010BD39B1062909D00729CA
:103990000BD0092909D0112010BD054909880180E3
:1039A00003E012B11146FCF751FE002010BD0000EB
:1039B0002800002038B504464FF40175022229463C
:1039C0006846FEF77BFBBDF8002006202240ADF8DC
:1039D0000020FEF7BCFF022229466846FEF7C6FB20
:1039E0000620FEF7CAFF38BD2DE9F04F89B0064624
:1039F000018900880890AD48002401F0FF09007893
:103A000009F0E00BA046A246254618B1092009B0EE
:103A1000BDE8F08F5FEA0B0006D0202805D04028D3
:103A200003D0BBF1600F7DD123E170894FF6FF72A7
:103A300002EA002202EB112189B2000ACDE903015A
:103A40000846FFF7EBF8029000286CD0002700979B
:103A5000DDE9031009F01003029AFFF7EBF8824644
:103A600006F10C00011D55460791BBF1400F05D032
:103A700009F00201BBF1200F16D03CE008990A2999
:103A800030D12946BAF1040F07D8BAF1000F04D09B
:103A900000210180074641802DE085480588103DC2
:103AA0008D4226D3079F26E041B108990A2919D1F2
:103AB000C9F38101C1F1040507461CE0B089F18911
:103AC00000EB01457B4805F110010088814204D9D3
:103AD0000899801F814205D106E0089805F10A0186
:103AE000884201D0082092E7DDE907700A38854254
:103AF00001D9012000905FEAC96004D503984FF016
:103B00000108012833D8009898B3684F01207871D4
:103B1000387287F80680049838820398F871029802
:103B2000386301E0C0E0A2E0BBF1400F19D0FD62B4
:103B3000386A18B1FCF750FC00203862F86A401C63
:103B400020F00100FCF719FC386268B1BBF1400FAE
:103B500012D0089A07990A3A1546FCF72AFD002068
:103B60001DE0C7F82CA0E3E7B8F1000F02D0052450
:103B70008CE033E0042489E0CDE90008DDE903109E
:103B80005246029BFFF7E0F8040002D0FF2C09D058
:103B900006E02A46396A0798FCF70BFD6020387169
:103BA000BD6271E00420787087F802800398F87095
:103BB00004987881C7F814A0386AB861029809F0AF
:103BC000F001C069F861012038707E62308920F010
:103BD000FF00084330816020387160E0BAF1000FC7
:103BE00006D13248049901820399C1710299016397
:103BF000CDE90078029BBBF1400F08D0DDE903104E
:103C00002A46FFF74BFA0446FF2818D03EE0DDE9CC
:103C100003105246FFF798F80446FF2836D1234890
:103C20000321417080F802800399C1700499418199
:103C3000C0E905A70299C969C16101210DE01B48CE
:103C40000121417080F80280039AC270049A428177
:103C5000C0E90557029A126AC26101704662308952
:103C600009F0F00120F0FF000843308117E008243C
:103C70000CE00E4909798B4516D1BBF1000F304697
:103C80000FD000F09BFB0446FF2C08D0CDE900A626
:103C9000ABB209F010025946204600F033FB002079
:103CA000B5E600F03FFAEEE70324EFE7D007002087
:103CB000580800205A0800202DE9FF5F002604461E
:103CC0008DF80460007A00F07F05022003902088C0
:103CD000052D05D0082805D2062004B0BDE8F09FC8
:103CE0000A28F9D3864FDFF81C924FF48058012D33
:103CF00005D0032D68D0052D66D00320D7E0A0891C
:103D0000052860D8C5B20E2221467F48FCF751FC39
:103D1000681E00F0FF0A0ED2A9F80C6000252846A4
:103D2000FEF74CFF04EB45016D1CEDB2C881052D7B
:103D3000F5D3122032E0B9F80C004D4648B139886D
:103D400004F10C030C398AB2E989ADF80810401E61
:103D500014E05046FEF732FFADF80880398804F1D0
:103D60000E030E398AB2B2EB400F09D2911C89B210
:103D7000C2EB40000844401E90FBF1F0A88100E037
:103D8000AE8101A8009002A95046FEF791FFBDF850
:103D90000810E9813988081A801F80B220809DF8B8
:103DA0000400002874D1208920F07F0040F0020038
:103DB0002081B9F80C106181002904D040F0800006
:103DC00020818220039085E0A089ADF8080040455D
:103DD00001D205206BE0FEF721FF5FEA000A7CD0EC
:103DE000032D1ED094F80E805046FEF715FF807804
:103DF000414680455AD85046FEF76EFE0168216163
:103E00008088A082A07BE0815046FEF705FF4088B5
:103E100004F1160BC0F30320082820D009281ED077
:103E200020E0FEF7F9FE0068C4F80E0000235246B9
:103E30001946BDF80800FEF7FFFD39880C3080B246
:103E4000891F884201D90C202CE004F1120352464C
:103E50000021BDF80800FEF7EFFD0C3021E0B8F1BD
:103E6000000F0ED0002352464146BDF80800FEF771
:103E7000E3FD3988103080B2891F884209D91020AB
:103E800010E00D2221495846FCF793FB1C2009E065
:103E90000FE05B4652464146BDF80800FEF7CCFDF8
:103EA000103080B29DF80410F9B102E011208DF8B5
:103EB00004000A202080208920F07F0040F00700C5
:103EC0002081668112489DF8041050F82100E060BE
:103ED000A9F80C602046039900E00FE0FEF7AAFB6A
:103EE00008B10C4804600020F7E666812080208934
:103EF0006D1C20F07F0028432081EBE70820D6E7E7
:103F000058080020D0070020AC5D00207D0800206C
:103F10005C850008080800202DE9FC47204C8146FC
:103F20000026207813460D46002837D0D4F824C048
:103F30009CF8080000F0E00800F01007B8F1400F0E
:103F400021D118480088103886B22046406A1030C7
:103F5000AE420DD2012161712172A7716021E5622B
:103F60002171324619462362FCF723FBA6620AE060
:103F7000691E032901D80CF10C00834203D02A46A4
:103F80001946FCF716FB00202070606A3346CDE925
:103F900000503A464146484600F0B4F9BDE8FC8777
:103FA000D00700205808002070B5012188B00846CD
:103FB000FFF754FC01210D032846FFF77FFC022187
:103FC0008DF818100024E0208DF81A4005908DF827
:103FD000191001201F4E8DF81B0005A93046FDF772
:103FE000FDFF052211463046FEF734F80522062172
:103FF0003046FEF72FF8052207213046FEF72AF853
:1040000001212846FFF766FC00212846FFF762FCE5
:10401000ADF800404FF48270ADF80200ADF80840F2
:10402000E810ADF80A003820ADF80C00ADF80440F7
:10403000ADF80640ADF80E400720074CADF8100073
:104040006946204600F039F80121204600F020F8AA
:1040500008B070BD000002400030014070B50B4C4C
:1040600005460221204600F01DF80028F9D0294617
:10407000204600F020F80121204600F013F8002827
:10408000F9D0204600F015F8C0B270BD00300140F4
:104090000029018802D041F0400101E021F04001F7
:1040A000018070470246002012890A4200D0012098
:1040B0007047808970478181704730B502884C888D
:1040C00002F441530A88CD8822438C882C43224332
:1040D0000C8922434C8922438C892243CC89224378
:1040E0001A430280828B22F400628283098A018251
:1040F00030BD000010B58A0721F003040849120FF3
:1041000021440F23D1F8084893409C43C1F8084844
:10411000D1F8083890400343C1F8083810BD0000BA
:10412000003001402DE9FC47DFF8D09104460289B8
:10413000002699F8080002F010013746814201D1AB
:104140000126AFE06E48CC46008889F8081009388F
:10415000D9F8201080B200297AD0DCE90A359846D7
:10416000ED1AD3074FF0010A14D0854210D82088E9
:10417000C01E854205D8C2F34203C3F10703AB4218
:1041800003D0072D04D9854202D18CF8057006E0D2
:104190000E2687E08CF805A08542F9D905465748D8
:1041A0005FEAC873806A20F0010018D00A5C0A52E6
:1041B000DCF82800B4F808C020F001000CF47F4CB3
:1041C00042EA0C020A52D9F828006A1E20F00100C7
:1041D000084404F10A01801CFCF7EBF91AE0130A09
:1041E000A27A05F1010843EA02220A5201200EE0F8
:1041F00004EB40021389927A1B0A43EA0222DCF89C
:10420000283000EB5303401C21F8132080B2B0EBA0
:10421000580FEDD399F80500C846B8B998F80620AC
:10422000D8F82010CDE900124046D0E90B2398F8C9
:104230000710B8F81000FEF731FF0646FF2808D037
:10424000D8F82000FCF7C8F8C8F82070C6B329E0F9
:1042500027E0022188F8011098F8061088F802106B
:1042600098F8071088F80310B8F81010A8F80A108A
:10427000D8F82C10C8F81410D8F82010C8F8181066
:10428000D8F830104046096AC8F81C1088F800A019
:10429000C8F8244047710771FF20C8F82870BDE8AE
:1042A000FC87032689F8057089F80470D9F8200086
:1042B0004C4610B1FCF790F82762A7623046EEE753
:1042C000FFE70A202080E08820F4704040F440504E
:1042D000E08098F80810404609B1302100E0202124
:1042E00021814179012903D0876288F80470E5E7CC
:1042F000816A2944C8F82810E0E70000D0070020B0
:104300005A0800202DE9F0410746DDE9060460293E
:1043100004D019B1258905F47F452581E5880A2651
:1043200025F470459FB1268045F40050E080802040
:104330002081204850F82700E06002212046FEF747
:1043400079F9002801D01C480460BDE8F08145F4EB
:104350004055E580402908D031B36029EDD0268052
:10436000208940F060002081E7E7411E03290BD837
:1043700026802189C0B21143C0F10400432242EAE1
:10438000800001432181D8E7834202D20A3323808F
:1043900002E000F10A012180A081000CE081208967
:1043A00042F041010843DEE72680208940F02000EA
:1043B000D9E700005C850008080800202DE9F047D7
:1043C000404F0446007A397A002600F010008842F7
:1043D00001D101266FE03C494FF00009098838728D
:1043E0000939D7F828C08DB2F86A0CEB0501814273
:1043F00004D9A0EB0C0587F8059001E00120787145
:104400003048237A2381026A806A5FEACC7820F000
:1044100001010CD0505A114400F47F400343238122
:104420006A1E04F10A00891CFCF7C3F81AE0515C0B
:10443000002043EA01214FEA5C0C21810FE0396A38
:1044400000EB0C0231F8123001EB42011B0A8978B3
:1044500004EB400243EA0121401C518180B2B0EBE1
:10446000550FECD3E08820F4704040F44050E080D9
:10447000208920F0FF00208179793A7A09B942F049
:10448000010210432081072D08D20A2020802089B4
:10449000C5F1070240EA4200208101E0E81C2080CB
:1044A00001290BD0386AFBF797FFC7F82090C7F8AF
:1044B000289087F804903046BDE8F087B86A284411
:1044C000B862F8E7D00700205808002038B5044645
:1044D0004FF40175022229466846FDF7EFFDBDF84D
:1044E000002006202243ADF80020FEF730FA022219
:1044F00029466846FDF73AFE0620FEF73EFA38BD2B
:1045000038B50E4CADF80010A27B824200D0A073EB
:10451000A1F57F42FF3A07D0ADF8001002224FF418
:104520009A716846FDF722FEA07BADF800000222DA
:104530004FF498716846FDF719FE38BD0C0800204D
:104540000CB50022274900920192086840F480309F
:1045500008604FF4A043086800F400300190009810
:10456000401C0090019810B900989842F3D1086857
:10457000800334D5012001901A484030026842F08F
:10458000805202601848026842F4404202601548B6
:10459000083002680260026842F400420260026869
:1045A00042F4A0520260031F104A1A600A6842F0E7
:1045B00080720A600A689201FCD50D4940F20572CA
:1045C0000A60016821F003010160016841F0020105
:1045D00001600168C1F381010229FAD10CBD019289
:1045E0000CBD000000380240007000400854400735
:1045F000003C02402DE9F04F85B04FF0000BF4492C
:10460000F44AADF800B0ADF804B0CDF808B0CDF87C
:104610000CB0DFF8C483898994890327A8F838B0DF
:104620005D463E460C4088F803B00220FDF738FD99
:104630000288A8F834200079800700D501260320DD
:10464000FDF72EFD0188A8F836100079800700D507
:104650000127E248B8F82CC0DFF884A30CFB07134D
:104660000288934204DDBAF80000104488420AD858
:10467000DC48DFF874930088834208DDB9F8003025
:1046800003448B4203D91E2005B0BDE8F08FB8F873
:104690003430B8F82E7007FB0636964204DDBAF8BF
:1046A00000703A449A420DD8864204DDB9F80020E1
:1046B0001044984206D8C2468E4205DD01EB0C003C
:1046C000984201D91D20DFE702224FF4186104A8A7
:1046D000FDF7F4FCBDF81000ADF8100004224FF413
:1046E0001A6102A8FDF7EAFC042240F6A41103A80F
:1046F000FDF7E4FCB64EDFF8DC92BDF810207088C0
:10470000B9F80210039B12F4106F26D012F4C06F98
:104710003FD0970501D457053BD43CB1670701D47E
:10472000970536D4270701D4570532D4029F47B1E5
:10473000DFF8B8C2DFF8B882BC44C44501D33620E4
:10474000A2E75FEA825C08D55FEA425C05D523B147
:10475000BB4202D30125E4061BD5A64C27780124D1
:10476000CFB112F4106F0CD0570503D4032810D02A
:1047700003290ED0920532D402280AD0022908D08B
:104780002DE0022805D0032803D0022901D00329F7
:1047900034D1302078E7BAF82E0012F4106F03D02D
:1047A000A8B19DB1032012E028B1BAF82C10012065
:1047B00051B1222108E0BAF82C0000284FF0000087
:1047C00001D0012100E00021B48308E00220BAF802
:1047D0002C1021B1510501D5032100E0022103284D
:1047E00002D0022805D009E0029A7262C9F824209A
:1047F00004E0029A726297B2C9F824709AF809200C
:1048000057460AB938B131B150EA01024FF4806A13
:1048100003D03C7203E0292036E73A7A4AB1FA8D98
:1048200012B1A7F838A004E0BA8D12B14FF40062BB
:104830003A87022805D0032803D0022901D0032992
:1048400004D17C71FA8D0AB9A7F838B07080A9F844
:104850000210A7F824B0A7F826B0A7F816B0D846DB
:10486000A7F814B0DDB1029883420BD3B3FBF0F18B
:10487000B3FBF0F289B200FB1232F9821AB9491C7B
:10488000F98200E0FC82B3FBF0F1B3FBF0F289B2F5
:1048900000FB1230B98440B1491CB98405E00228FC
:1048A00000D1FC82032900D0BC84534802224FF47B
:1048B0008461A0F8008001A8FDF700FCBDF80400A9
:1048C000ADF80400F98D19B310B3022251466846C1
:1048D000FDF7F4FBBDF80000ADF8000080B1BDF8B5
:1048E0000410801C484346F2A7110844491CB0FB41
:1048F000F1F00004000C788606D0387930B10AE077
:10490000ADF80480A7F83280387920B11F20BBE6CB
:10491000ADF80080F6E7387A28B1F88D18B1388FF5
:1049200040F480603887A7F81E80A7F81C80A7F89D
:104930002080A7F8228087F8068087F80780A7F8EC
:10494000188089F8408086F84080A6F82880BDF855
:10495000102090052DD5254D02986D420A2328B1CF
:10496000B0FBF5F1052904D2FC8309E0A7F81E800D
:1049700006E04FF6FF7606EA4101B1FBF3F1F98359
:10498000510516D50399814201D2F88B10E0B1FB95
:10499000F5F0052801D27C8406E04FF6FF7101EAAC
:1049A0004000B0FBF3F07884788CF98B00EB510079
:1049B0007884F88D10B10220FDF7C0F9B88D10B1E0
:1049C0000320FDF7BBF9FEF7A1FD00205CE6000027
:1049D00024600020686000200C0800205E08002091
:1049E000580800205C0800205A0800206079FEFF6B
:1049F00061794EC37C0800208A0800200649FF2008
:104A00008A7A0AB1088D70474A79002AFBD0C822F9
:104A10000A8300224A8370470C08002010B5134C0B
:104A2000E08D10B10220FCF7E0FEA08D10B1032054
:104A3000FCF7DBFE4FF2F330FEF7BCFF0020E07026
:104A400020726071A071E071E082A082E083A08397
:104A5000208460840649A084E08481F8400020839B
:104A600004492071A070087010BD00000C080020DF
:104A7000686000207C08002002480021C17041705D
:104A8000704700000C0800202DE9F0473048002551
:104A9000058030480078002858D02F4EDFF8BC80C1
:104AA000307820B1B8F80010491CA8F800102C4844
:104AB000018841B32B4C2C482C4A27880088128847
:104AC000DFF8AC908F4215D92A49098940B1DFF847
:104AD000A8C0BCF828308B4202D8DB1CACF82830C8
:104AE00042B1A8B9B9F82800884205D8C01CA9F875
:104AF000280001E060B95AB1FDF79EFB000503D420
:104B00002088401C208005E02580A9F8285001E07D
:104B10007F1C27801948007820B91948007808B10F
:104B2000FEF708FDFCF704FA307800280ED0154C8B
:104B3000208800280AD0B8F800104646884205D1DF
:104B4000FEF7E4FC2088012800D13580BDE8F0871D
:104B500028080020110800200E080020320800203C
:104B600022080020200800203A08002038080020F1
:104B700068600020700800202460002014080020D5
:104B80000D0800203008002010B5094800240480DA
:104B90000848007840B108484088032804D10748F5
:104BA000008808B9FEF7B2FC0548048010BD00007B
:104BB0002C0800200E08002068600020300800202B
:104BC000320800204FF0E0210428086903D020F0CB
:104BD00004000861704740F00400FAE710B501F0E6
:104BE000D7FF012803D0BDE8104001F0C5BC10BDBF
:104BF000124810B5016841F4700101601048016865
:104C000041F0010101600E4A002108321160026882
:104C10000C4B1A400260031D0B4A1A60026822F412
:104C20008022026006480C300160FFF789FC0349CE
:104C30004FF000608039086010BD000088ED00E092
:104C400000380240FFFFF6FE1030002410B5FCF7DC
:104C5000E5FD0121BDE81040880700F003B8C94315
:104C600001827047C943018270470029018802D040
:104C700041F0010101E021F00101018070473EB5E2
:104C8000044601210846FEF701FE4FF08045284604
:104C900000F01EF8C82014FB00F001902320ADF8AE
:104CA00000000020ADF80800ADF802006946284673
:104CB00000F0BEF801212846FFF7D1FF012211467E
:104CC000284600F0ADF801212846FFF7CEFF3EBD93
:104CD000464910B5884206D101210846FEF7FAFD83
:104CE000002101205BE0B0F1804F09D040498842AB
:104CF0000DD101210220FEF7D5FD0021022070E038
:104D000001210846FEF7CEFD0021012069E0394966
:104D1000884206D101210420FEF7C4FD00210420B1
:104D20005FE03549884206D101210820FEF7BAFD2F
:104D30000021082055E03149884206D10121102088
:104D4000FEF7B0FD002110204BE02D49884206D12E
:104D500001212020FEF7A6FD0021202041E0294965
:104D6000884206D101210220FEF7B4FD0021022075
:104D700015E02549884202D101210C040AE02349AB
:104D8000884202D101214C0404E0214988420AD121
:104D900001218C042046FEF79DFD00212046BDE840
:104DA0001040FEF797BD1B49884206D101214020E3
:104DB000FEF778FD0021402013E01749884206D114
:104DC00001218020FEF76EFD0021802009E01349BB
:104DD00088420AD1841501212046FEF763FD002197
:104DE0002046BDE81040FEF75DBD10BD000001404B
:104DF0000004004000080040000C0040001000408B
:104E00000014004000040140004001400044014003
:104E10000048014000180040001C004000200040F5
:104E2000002A828901D00A4300E08A4382817047C8
:104E300030B50288164C174DA0420DD0A8420BD0B9
:104E4000B0F1804F08D0144B984205D0134B9842D4
:104E500002D0134B984203D122F070034A881A43C0
:104E6000104B984206D0104B984203D022F4407366
:104E70000A891A4302804A68C2620A880285A042EF
:104E800001D0A84201D1897A01860121818230BDF9
:104E90000000014000040140000400400008004000
:104EA000000C0040001000400014004070B5154C8C
:104EB00040F22551204600F035F800280ED020465B
:104EC00000F0BEF8104AC1B21088030406D44404AE
:104ED0004FF0000306D50A2901D0138070BD40F4BD
:104EE00000400DE00D2909D0C0F30D04074D401C12
:104EF00080B229551080C728EFD870BD40F480409B
:104F0000108070BD00100140440700209809002067
:104F10000029818902D041F4005101E021F40051BF
:104F20008181704770B501F01F0501260024C1F38F
:104F3000421306FA05F2012B0FD0022B0FD0838A01
:104F40004FEA11210088134206FA01F600EA060032
:104F500001D000B10124204670BD8389F0E7038AA7
:104F6000EEE710B5C1F3421301F01F040121A14087
:104F7000012B07D0022B07D01430002A026805D07D
:104F80000A4304E00C30F8E71030F6E78A43026089
:104F900010BD00007FB50446008A0D46C98820F484
:104FA000405001432182A08941F20C618843A988C5
:104FB0002A8911436A8902431143A181A08A20F4FE
:104FC0004071A8890843A0826846FEF78FFC1A4802
:104FD000844202D01948844201D1039800E002982B
:104FE000A189090400EBC00101EB0010296801D57B
:104FF000490000E08900B0FBF1F06422B0FBF2F15F
:1050000009010B096FF018056B4300EB8300A389BE
:105010001D044FF0320306D503EBC000B0FBF2F0E5
:1050200000F0070005E003EB0010B0FBF2F000F029
:105030000F00084320817FBD001001400014014093
:105040008088C0F30800704738B50024ADF80040F0
:10505000022240F202516846FDF730F8BDF8000028
:105060000549ADF80000020501D4C00401D50C705B
:1050700038BD0120087038BD0C080020FEE77047DD
:1050800070474FF47A74204600F0FCFFFBE7000005
:1050900070B52A4D00242DED068BA5F12C069FED51
:1050A000218B9FED229B9FED23AB601C02F0FEF94C
:1050B00053EC182B02F012FA01F0C6FF45F8240059
:1050C000204602F0F3F953EC192B02F007FA53ECE7
:1050D0001A2B01F0EBFF01F0B7FF46F82400641C27
:1050E0000A2CE2DB154A0020583A05EB800191EDCD
:1050F000010AD1ED000A06EB800130EE600AD1ED25
:10510000010A91ED001A02EB8001401C70EEC10A09
:105110000A2880EE201A81ED011AE6DBBDEC068B31
:1051200070BD0000000000000000F43F000000001F
:105130000000F83F00000000000010406C09002053
:1051400010B504460420FFF73DFD0A484FF47A717C
:10515000047014FB01F1012242804FF0E02002694B
:1051600042F0020202614161016941F00101016105
:1051700010BD0000400700204FF4FA74204600F0F4
:1051800081FFFBE703490A885206FCD5C2B28A8038
:1051900070470000001001401CB54FF44070FDF74F
:1051A00029FCA820FFF7CCFF4FF4E13000F08AFD86
:1051B000FDF7D4F8FDF74CF8FFF76AFFFDF764FB45
:1051C000FEF7F2FE0949012008700949C1F8900272
:1051D00008490202CDE90001002307A1094801F0B6
:1051E000ABFC01F0AFF800201CBD000070010020F6
:1051F00000004042F006002073746172745F7461B5
:10520000736B0000355C00082DE9F041184E0F4625
:105210000446F5683068001D00F0AAFD38B9306812
:1052200090F82C1001208840316981433161601C65
:1052300007D137B13168BDE8F0410E48091D00F0D3
:10524000CFBD30682C44AC424460316805D2B06BAD
:10525000BDE8F041091D00F0ABBD706B091D00F009
:10526000A7FDB06A844200D2B462BDE8F0810000BC
:105270005C070020700D00202DE9F041054600F08C
:10528000BBFD2D4EB068401CB06030682B4F10B194
:10529000706930B32BE03560B068012827D1002455
:1052A00004EB840007EB800000F074FD641C202CEC
:1052B000F6D3234800F06EFD2148143000F06AFD5B
:1052C0001F48283000F066FD1D483C3000F062FDAC
:1052D0001B48503000F05EFD194870631430B06315
:1052E00005E03068E96AC06A884200D83560706AB3
:1052F0000121401C70626864E86A32698140114390
:10530000316100EB800007EB8000291D00F068FD93
:1053100000F0AEFD706900280CD03068E96AC06A00
:10532000884207D207494FF080500860BFF34F8F83
:10533000BFF36F8FBDE8F0815C070020A00A00205A
:10534000200D002004ED00E010B500F055FD0E4CDE
:105350002068A0B90D4800F01DFD0C48143000F085
:1053600019FD0A48E0601430206100221021052058
:1053700001F018F9206010B105A100F04FFEBDE862
:10538000104000F075BD000098070020840D00203B
:10539000546D72510000000070B5124E124D1CE0A9
:1053A00001F01AF8306820B1002401F01FFDA4B903
:1053B00001E00124F9E700F01FFDF068C468201D3A
:1053C00000F0D6FCA868401EA8606868401E6860AF
:1053D00000F04EFD204600F052F868680028DFD14A
:1053E00070BD00005C0D00205C07002030B4026C32
:1053F0000B46002A0BD0C1681144C1604468A14229
:1054000001D30168C16030BC1846FBF7D2B830BC8C
:1054100070472DE9F041856B174604460026026C63
:1054200082B1C7B1E068FBF7C4F8E168206C091AE3
:10543000E1602268914202D26168081AE060022F9E
:1054400016D017E02068A8B9606801F029FC06466C
:10545000002060600EE0A068FBF7ABF8216CA0684C
:105460000844A0606168884204D32068A06001E01D
:1054700005B16D1E6D1CA5633046BDE8F08110B509
:105480000446006B00F026FD2046BDE8104000F009
:1054900021BD000010484FF4A041420706D0C01DB6
:1054A0000D4920F00700411AC1F5A0410B4A002325
:1054B0000144C2E900030839103A21F007011160E4
:1054C0004B600B600B1AC0E9001393604FF0004073
:1054D0005360D06070470000AC0D0020C80700206A
:1054E000074E4FF08054074DFFF756FF30680128F4
:1054F000FAD92C60BFF34F8FBFF36F8FF4E7000032
:10550000A00A002004ED00E02DE9F047DDE9098460
:105510000E461746824691009946089DA522206BAB
:10552000FBF78CF86FF00301206B01EB8701084457
:1055300020F00707780705D040F22B3219A11EA0F2
:10554000FAF772FF00202218315C82F83410315CC7
:1055500011B1401C1028F6D3002684F84360202D9A
:1055600000D31F25E562C4E91356201D00F01DFC81
:1055700004F1180000F019FC2461C5F120006462F8
:10558000A061666584F858604A465146384600F086
:1055900003FB2060B8F1000F01D0C8F80040BDE85F
:1055A000F08700002E2E5C4672656552544F535CA6
:1055B0007461736B732E63004572726F723A257358
:1055C0002C25640D0A00000030B5114900E0114699
:1055D0000A688242FBD34B685C18844203D140685E
:1055E00018444860084643681C18944209D1084C86
:1055F000103C2468A24209D052681A4442600A68EA
:1056000012680260814200D0086030BD0460F9E792
:10561000C807002070B5002441600B4D0061914225
:1056200006D8D11A8269914206D2011D286907E085
:105630009A4203D2994201D3012403E0011DE86894
:1056400000F0B6FB204670BD9807002010B5044658
:1056500000F0D2FBA06B20B1002400F009FC204632
:1056600010BD0124F9E700002DE9F34100980F4631
:105670000026846C2CB940F6CE1216A11AA0FAF7B7
:10568000D3FEA06BE16B884205D340F6CF1211A187
:1056900015A0FAF7C9FEA06BE16B88420CD294F911
:1056A00045503A4669462046FFF7B3FE0646681C59
:1056B00005D06D1C84F845503046BDE8FC81606A19
:1056C0000028F9D004F1240001F044FB0028F3D0B5
:1056D0000126F1E72E2E5C4672656552544F535CED
:1056E00071756575652E63004572726F723A257328
:1056F0002C25640D0A000000F8B5054614480E4636
:10570000C068C068C468201D00F032FBE069012851
:1057100017D1A0692B46411932462046FFF77AFF80
:1057200078B100200346014600902A46204601F049
:1057300043FC30B907494FF4027201F11800FAF73F
:1057400073FE616A01B02046BDE8F04008470000E2
:10575000980700201C6F000870B586B02F4E53E0EC
:105760000198002806DADDE90301029A90470198C2
:10577000002849DB039C606910B1201D00F0F8FA95
:1057800005A800F0A7F8054601980A283CD2DFE8F2
:1057900000F00505053B273805053B270298A16960
:1057A000034601442A462046FFF734FF00282BD049
:1057B000616A20468847E069012825D100200090D1
:1057C0000298A169002342181946204601F0F4FB13
:1057D000D0B940F2213212A117A0FAF725FE13E04A
:1057E0000298A06128B94FF44E720DA112A0FAF7E9
:1057F0001BFEA0692B4641191A462046FFF70AFFF7
:1058000002E0204600F066FB00231A4601A930683A
:1058100000F004FF0028A3D106B070BD9807002057
:105820002E2E5C4672656552544F535C74696D65EB
:1058300072732E63000000004572726F723A257316
:105840002C25640D0A000000F8B50D46064600F050
:10585000C3FD684600F03EF80446009810B101F020
:10586000C5FAF8BD1148ADB101690968D9B1002583
:10587000311B2A46006800F0E3FB01F0B7FA00286C
:10588000EFD10B494FF080500860BFF34F8FBFF34B
:105890006F8FF8BDA642EBD801F0A8FA214630463A
:1058A000FFF72AFFF8BD0125E2E700009807002076
:1058B00004ED00E00648416B096829B1416BC968F5
:1058C000C9684968816270474FF0FF31FAE700000C
:1058D0005C07002070B5054601F068F9064E0446E5
:1058E000B068844203D200F009F8012000E00020F3
:1058F00028602046B46070BD98070020F8B5184EA7
:1059000026E0C068C4680568201D00F031FA616AAD
:1059100020468847E06901281AD1A0692844A84296
:1059200006D924616060211DF06800F041FA0FE0A3
:1059300000200346014600902A46204601F03CFB29
:1059400030B9084940F2923201F11800FAF76CFDC3
:10595000F06801680029D4D13169C6E90310F8BDA7
:10596000980700201C6F000808484068401C05D0BC
:1059700040F20F1206A111A0FAF756FD502080F355
:105980001188BFF34F8FBFF36F8FFEE7AC07002086
:105990002E2E5C4672656552544F535C706F727464
:1059A00061626C655C525644535C41524D5F434D9D
:1059B00034465C706F72742E630000004572726F23
:1059C000723A25732C25640D0A000000084CE0682B
:1059D000016839B1002139B10020FFF735FFFFF729
:1059E000BBFEF4E70121F6E7C0680068F5E70000B8
:1059F000980700202DE9F041044600F0FDF994F9E4
:105A0000455004F1240610E0A06C20B1002120468E
:105A1000FFF72AFE04E0606A48B1304601F09AF9C7
:105A200008B100F0CBFB6D1E6DB2002DECDC4FF029
:105A3000FF3684F8456000F01BFA00F0DDF994F9B8
:105A4000445004F1100709E0206948B1384601F0DC
:105A500081F908B100F0B2FB6D1E6DB2002DF3DCD0
:105A600084F84460BDE8F04100F002BA2DE9F0414D
:105A70000546002600F0B0FC324F386808B9FFF741
:105A800009FDF86805424FD1002D4DD00835680753
:105A90000BD005F00700C0F108000544680704D0EA
:105AA000BF2229A132A0FAF7BFFC002D3CD07868B4
:105AB000854239D8234910310846046801E021465F
:105AC00004466068A84202D220680028F7D13868EE
:105AD000B846844228D00E6820680860606808369E
